{
  "contractName": "EscrowContract",
  "abi": [
    {
      "anonymous": false,
      "inputs": [
        {
          "indexed": false,
          "internalType": "uint256",
          "name": "escrowId",
          "type": "uint256"
        }
      ],
      "name": "EscrowCompleted",
      "type": "event"
    },
    {
      "anonymous": false,
      "inputs": [
        {
          "indexed": false,
          "internalType": "uint256",
          "name": "escrowId",
          "type": "uint256"
        },
        {
          "indexed": false,
          "internalType": "address",
          "name": "buyer",
          "type": "address"
        },
        {
          "indexed": false,
          "internalType": "address",
          "name": "seller",
          "type": "address"
        },
        {
          "indexed": false,
          "internalType": "uint256",
          "name": "amount",
          "type": "uint256"
        }
      ],
      "name": "EscrowCreated",
      "type": "event"
    },
    {
      "inputs": [],
      "name": "escrowCount",
      "outputs": [
        {
          "internalType": "uint256",
          "name": "",
          "type": "uint256"
        }
      ],
      "stateMutability": "view",
      "type": "function",
      "constant": true
    },
    {
      "inputs": [
        {
          "internalType": "uint256",
          "name": "",
          "type": "uint256"
        }
      ],
      "name": "escrows",
      "outputs": [
        {
          "internalType": "address",
          "name": "buyer",
          "type": "address"
        },
        {
          "internalType": "address",
          "name": "seller",
          "type": "address"
        },
        {
          "internalType": "uint256",
          "name": "amount",
          "type": "uint256"
        },
        {
          "internalType": "bool",
          "name": "isCompleted",
          "type": "bool"
        }
      ],
      "stateMutability": "view",
      "type": "function",
      "constant": true
    },
    {
      "inputs": [
        {
          "internalType": "address",
          "name": "_seller",
          "type": "address"
        },
        {
          "internalType": "uint256",
          "name": "_amount",
          "type": "uint256"
        }
      ],
      "name": "createEscrow",
      "outputs": [],
      "stateMutability": "payable",
      "type": "function",
      "payable": true
    },
    {
      "inputs": [
        {
          "internalType": "uint256",
          "name": "_escrowId",
          "type": "uint256"
        }
      ],
      "name": "completeEscrow",
      "outputs": [],
      "stateMutability": "nonpayable",
      "type": "function"
    },
    {
      "inputs": [
        {
          "internalType": "uint256",
          "name": "_escrowId",
          "type": "uint256"
        }
      ],
      "name": "cancelEscrow",
      "outputs": [],
      "stateMutability": "nonpayable",
      "type": "function"
    }
  ],
  "bytecode": "0x608060405234801561001057600080fd5b50610ca8806100206000396000f3fe60806040526004361061004a5760003560e01c8063012f52ee1461004f5780634614874e1461008f578063675ac67a146100ab578063df3e0a1d146100d6578063e0182436146100ff575b600080fd5b34801561005b57600080fd5b50610076600480360381019061007191906107d9565b610128565b6040516100869493929190610871565b60405180910390f35b6100a960048036038101906100a491906108e2565b6101a5565b005b3480156100b757600080fd5b506100c0610361565b6040516100cd9190610922565b60405180910390f35b3480156100e257600080fd5b506100fd60048036038101906100f891906107d9565b610367565b005b34801561010b57600080fd5b50610126600480360381019061012191906107d9565b61056d565b005b60006020528060005260406000206000915090508060000160009054906101000a900473ffffffffffffffffffffffffffffffffffffffff16908060010160009054906101000a900473ffffffffffffffffffffffffffffffffffffffff16908060020154908060030160009054906101000a900460ff16905084565b8034146101e7576040517f08c379a00000000000000000000000000000000000000000000000000000000081526004016101de9061099a565b60405180910390fd5b600160008154809291906101fa906109e9565b919050555060405180608001604052803373ffffffffffffffffffffffffffffffffffffffff1681526020018373ffffffffffffffffffffffffffffffffffffffff16815260200182815260200160001515815250600080600154815260200190815260200160002060008201518160000160006101000a81548173ffffffffffffffffffffffffffffffffffffffff021916908373ffffffffffffffffffffffffffffffffffffffff16021790555060208201518160010160006101000a81548173ffffffffffffffffffffffffffffffffffffffff021916908373ffffffffffffffffffffffffffffffffffffffff1602179055506040820151816002015560608201518160030160006101000a81548160ff0219169083151502179055509050507f9405ad0a6208539879349284d71265479b1623846f70303da1f9890d6e8c10a76001543384846040516103559493929190610a31565b60405180910390a15050565b60015481565b6001548111156103ac576040517f08c379a00000000000000000000000000000000000000000000000000000000081526004016103a390610ac2565b60405180910390fd5b600080600083815260200190815260200160002090503373ffffffffffffffffffffffffffffffffffffffff168160010160009054906101000a900473ffffffffffffffffffffffffffffffffffffffff1673ffffffffffffffffffffffffffffffffffffffff1614610454576040517f08c379a000000000000000000000000000000000000000000000000000000000815260040161044b90610b54565b60405180910390fd5b8060030160009054906101000a900460ff16156104a6576040517f08c379a000000000000000000000000000000000000000000000000000000000815260040161049d90610bc0565b60405180910390fd5b60018160030160006101000a81548160ff0219169083151502179055508060010160009054906101000a900473ffffffffffffffffffffffffffffffffffffffff1673ffffffffffffffffffffffffffffffffffffffff166108fc82600201549081150290604051600060405180830381858888f19350505050158015610531573d6000803e3d6000fd5b507f9285bd636dda01bef18996aa38303bb742f6c67a6941646dddb17630cb492c2e826040516105619190610922565b60405180910390a15050565b6001548111156105b2576040517f08c379a00000000000000000000000000000000000000000000000000000000081526004016105a990610ac2565b60405180910390fd5b600080600083815260200190815260200160002090503373ffffffffffffffffffffffffffffffffffffffff168160000160009054906101000a900473ffffffffffffffffffffffffffffffffffffffff1673ffffffffffffffffffffffffffffffffffffffff161461065a576040517f08c379a000000000000000000000000000000000000000000000000000000000815260040161065190610c52565b60405180910390fd5b8060030160009054906101000a900460ff16156106ac576040517f08c379a00000000000000000000000000000000000000000000000000000000081526004016106a390610bc0565b60405180910390fd5b8060000160009054906101000a900473ffffffffffffffffffffffffffffffffffffffff1673ffffffffffffffffffffffffffffffffffffffff166108fc82600201549081150290604051600060405180830381858888f1935050505015801561071a573d6000803e3d6000fd5b50600080838152602001908152602001600020600080820160006101000a81549073ffffffffffffffffffffffffffffffffffffffff02191690556001820160006101000a81549073ffffffffffffffffffffffffffffffffffffffff021916905560028201600090556003820160006101000a81549060ff021916905550505050565b600080fd5b6000819050919050565b6107b6816107a3565b81146107c157600080fd5b50565b6000813590506107d3816107ad565b92915050565b6000602082840312156107ef576107ee61079e565b5b60006107fd848285016107c4565b91505092915050565b600073ffffffffffffffffffffffffffffffffffffffff82169050919050565b600061083182610806565b9050919050565b61084181610826565b82525050565b610850816107a3565b82525050565b60008115159050919050565b61086b81610856565b82525050565b60006080820190506108866000830187610838565b6108936020830186610838565b6108a06040830185610847565b6108ad6060830184610862565b95945050505050565b6108bf81610826565b81146108ca57600080fd5b50565b6000813590506108dc816108b6565b92915050565b600080604083850312156108f9576108f861079e565b5b6000610907858286016108cd565b9250506020610918858286016107c4565b9150509250929050565b60006020820190506109376000830184610847565b92915050565b600082825260208201905092915050565b7f496e636f727265637420616d6f756e742073656e740000000000000000000000600082015250565b600061098460158361093d565b915061098f8261094e565b602082019050919050565b600060208201905081810360008301526109b381610977565b9050919050565b7f4e487b7100000000000000000000000000000000000000000000000000000000600052601160045260246000fd5b60006109f4826107a3565b91507fffffffffffffffffffffffffffffffffffffffffffffffffffffffffffffffff8203610a2657610a256109ba565b5b600182019050919050565b6000608082019050610a466000830187610847565b610a536020830186610838565b610a606040830185610838565b610a6d6060830184610847565b95945050505050565b7f496e76616c696420657363726f77204944000000000000000000000000000000600082015250565b6000610aac60118361093d565b9150610ab782610a76565b602082019050919050565b60006020820190508181036000830152610adb81610a9f565b9050919050565b7f4f6e6c79207468652073656c6c65722063616e20636f6d706c6574652074686560008201527f20657363726f7700000000000000000000000000000000000000000000000000602082015250565b6000610b3e60278361093d565b9150610b4982610ae2565b604082019050919050565b60006020820190508181036000830152610b6d81610b31565b9050919050565b7f457363726f7720616c726561647920636f6d706c657465640000000000000000600082015250565b6000610baa60188361093d565b9150610bb582610b74565b602082019050919050565b60006020820190508181036000830152610bd981610b9d565b9050919050565b7f4f6e6c79207468652062757965722063616e2063616e63656c2074686520657360008201527f63726f7700000000000000000000000000000000000000000000000000000000602082015250565b6000610c3c60248361093d565b9150610c4782610be0565b604082019050919050565b60006020820190508181036000830152610c6b81610c2f565b905091905056fea26469706673582212208de37c458d999226e7a0f88fa2838b5c02d55e21191131afc063d04811792ba164736f6c63430008140033",
  "immutableReferences": {},
  "source": "// SPDX-License-Identifier: MIT\r\npragma solidity ^0.8.0;\r\n\r\ncontract EscrowContract {\r\n    struct Escrow {\r\n        address buyer;\r\n        address seller;\r\n        uint256 amount;\r\n        bool isCompleted;\r\n    }\r\n\r\n    mapping(uint256 => Escrow) public escrows;\r\n    uint256 public escrowCount;\r\n\r\n    event EscrowCreated(uint256 escrowId, address buyer, address seller, uint256 amount);\r\n    event EscrowCompleted(uint256 escrowId);\r\n\r\n    function createEscrow(address _seller, uint256 _amount) public payable {\r\n        require(msg.value == _amount, \"Incorrect amount sent\");\r\n\r\n        escrowCount++;\r\n        escrows[escrowCount] = Escrow({\r\n            buyer: msg.sender,\r\n            seller: _seller,\r\n            amount: _amount,\r\n            isCompleted: false\r\n        });\r\n\r\n        emit EscrowCreated(escrowCount, msg.sender, _seller, _amount);\r\n    }\r\n\r\n    function completeEscrow(uint256 _escrowId) public {\r\n        require(_escrowId <= escrowCount, \"Invalid escrow ID\");\r\n        Escrow storage escrow = escrows[_escrowId];\r\n        require(escrow.seller == msg.sender, \"Only the seller can complete the escrow\");\r\n        require(!escrow.isCompleted, \"Escrow already completed\");\r\n\r\n        escrow.isCompleted = true;\r\n        payable(escrow.seller).transfer(escrow.amount);\r\n\r\n        emit EscrowCompleted(_escrowId);\r\n    }\r\n\r\n    function cancelEscrow(uint256 _escrowId) public {\r\n        require(_escrowId <= escrowCount, \"Invalid escrow ID\");\r\n        Escrow storage escrow = escrows[_escrowId];\r\n        require(escrow.buyer == msg.sender, \"Only the buyer can cancel the escrow\");\r\n        require(!escrow.isCompleted, \"Escrow already completed\");\r\n\r\n        payable(escrow.buyer).transfer(escrow.amount);\r\n        delete escrows[_escrowId];\r\n    }\r\n}",
  "sourcePath": "D:\\LICENTA\\TheRealOne\\contracts\\EscrowContract.sol",
  "compiler": {
    "name": "solc",
    "version": "0.8.20+commit.a1b79de6.Emscripten.clang"
  },
  "schemaVersion": "3.4.16",
  "updatedAt": "2024-03-10T03:15:56.913Z",
  "networkType": "ethereum",
  "devdoc": {
    "kind": "dev",
    "methods": {},
    "version": 1
  },
  "userdoc": {
    "kind": "user",
    "methods": {},
    "version": 1
  }
}