{
  "contractName": "EscrowContract",
  "abi": [
    {
      "anonymous": false,
      "inputs": [
        {
          "indexed": false,
          "internalType": "uint256",
          "name": "escrowId",
          "type": "uint256"
        }
      ],
      "name": "EscrowCompleted",
      "type": "event"
    },
    {
      "anonymous": false,
      "inputs": [
        {
          "indexed": false,
          "internalType": "uint256",
          "name": "escrowId",
          "type": "uint256"
        },
        {
          "indexed": false,
          "internalType": "address",
          "name": "buyer",
          "type": "address"
        },
        {
          "indexed": false,
          "internalType": "address",
          "name": "seller",
          "type": "address"
        },
        {
          "indexed": false,
          "internalType": "address",
          "name": "arbiter",
          "type": "address"
        },
        {
          "indexed": false,
          "internalType": "uint256",
          "name": "amount",
          "type": "uint256"
        }
      ],
      "name": "EscrowCreated",
      "type": "event"
    },
    {
      "inputs": [],
      "name": "escrowCount",
      "outputs": [
        {
          "internalType": "uint256",
          "name": "",
          "type": "uint256"
        }
      ],
      "stateMutability": "view",
      "type": "function",
      "constant": true
    },
    {
      "inputs": [
        {
          "internalType": "uint256",
          "name": "",
          "type": "uint256"
        }
      ],
      "name": "escrows",
      "outputs": [
        {
          "internalType": "address",
          "name": "buyer",
          "type": "address"
        },
        {
          "internalType": "address",
          "name": "seller",
          "type": "address"
        },
        {
          "internalType": "address",
          "name": "arbiter",
          "type": "address"
        },
        {
          "internalType": "uint256",
          "name": "amount",
          "type": "uint256"
        },
        {
          "internalType": "bool",
          "name": "isCompleted",
          "type": "bool"
        }
      ],
      "stateMutability": "view",
      "type": "function",
      "constant": true
    },
    {
      "inputs": [
        {
          "internalType": "address",
          "name": "_seller",
          "type": "address"
        },
        {
          "internalType": "address",
          "name": "_arbiter",
          "type": "address"
        },
        {
          "internalType": "uint256",
          "name": "_amount",
          "type": "uint256"
        }
      ],
      "name": "createEscrow",
      "outputs": [],
      "stateMutability": "payable",
      "type": "function",
      "payable": true
    },
    {
      "inputs": [
        {
          "internalType": "uint256",
          "name": "_escrowId",
          "type": "uint256"
        }
      ],
      "name": "completeEscrow",
      "outputs": [],
      "stateMutability": "nonpayable",
      "type": "function"
    },
    {
      "inputs": [
        {
          "internalType": "uint256",
          "name": "_escrowId",
          "type": "uint256"
        }
      ],
      "name": "cancelEscrow",
      "outputs": [],
      "stateMutability": "nonpayable",
      "type": "function"
    }
  ],
  "bytecode": "0x608060405234801561001057600080fd5b50610f75806100206000396000f3fe60806040526004361061004a5760003560e01c8063012f52ee1461004f578063675ac67a14610090578063c3617650146100bb578063df3e0a1d146100d7578063e018243614610100575b600080fd5b34801561005b57600080fd5b5061007660048036038101906100719190610959565b610129565b6040516100879594939291906109f1565b60405180910390f35b34801561009c57600080fd5b506100a56101cc565b6040516100b29190610a44565b60405180910390f35b6100d560048036038101906100d09190610a8b565b6101d2565b005b3480156100e357600080fd5b506100fe60048036038101906100f99190610959565b6103f4565b005b34801561010c57600080fd5b5061012760048036038101906101229190610959565b610660565b005b60006020528060005260406000206000915090508060000160009054906101000a900473ffffffffffffffffffffffffffffffffffffffff16908060010160009054906101000a900473ffffffffffffffffffffffffffffffffffffffff16908060020160009054906101000a900473ffffffffffffffffffffffffffffffffffffffff16908060030154908060040160009054906101000a900460ff16905085565b60015481565b803414610214576040517f08c379a000000000000000000000000000000000000000000000000000000000815260040161020b90610b3b565b60405180910390fd5b6001600081548092919061022790610b8a565b91905055506040518060a001604052803373ffffffffffffffffffffffffffffffffffffffff1681526020018473ffffffffffffffffffffffffffffffffffffffff1681526020018373ffffffffffffffffffffffffffffffffffffffff16815260200182815260200160001515815250600080600154815260200190815260200160002060008201518160000160006101000a81548173ffffffffffffffffffffffffffffffffffffffff021916908373ffffffffffffffffffffffffffffffffffffffff16021790555060208201518160010160006101000a81548173ffffffffffffffffffffffffffffffffffffffff021916908373ffffffffffffffffffffffffffffffffffffffff16021790555060408201518160020160006101000a81548173ffffffffffffffffffffffffffffffffffffffff021916908373ffffffffffffffffffffffffffffffffffffffff1602179055506060820151816003015560808201518160040160006101000a81548160ff0219169083151502179055509050507fcaf993c592f602a7d225c8556e07d471f93e7c0f2609647024e59018f5a521ac600154338585856040516103e7959493929190610bd2565b60405180910390a1505050565b600154811115610439576040517f08c379a000000000000000000000000000000000000000000000000000000000815260040161043090610c71565b60405180910390fd5b600080600083815260200190815260200160002090503373ffffffffffffffffffffffffffffffffffffffff168160020160009054906101000a900473ffffffffffffffffffffffffffffffffffffffff1673ffffffffffffffffffffffffffffffffffffffff16146104e1576040517f08c379a00000000000000000000000000000000000000000000000000000000081526004016104d890610d03565b60405180910390fd5b8060040160009054906101000a900460ff1615610533576040517f08c379a000000000000000000000000000000000000000000000000000000000815260040161052a90610d6f565b60405180910390fd5b60018160040160006101000a81548160ff02191690831515021790555060008160010160009054906101000a900473ffffffffffffffffffffffffffffffffffffffff1673ffffffffffffffffffffffffffffffffffffffff16826003015460405161059e90610dc0565b60006040518083038185875af1925050503d80600081146105db576040519150601f19603f3d011682016040523d82523d6000602084013e6105e0565b606091505b5050905080610624576040517f08c379a000000000000000000000000000000000000000000000000000000000815260040161061b90610e21565b60405180910390fd5b7f9285bd636dda01bef18996aa38303bb742f6c67a6941646dddb17630cb492c2e836040516106539190610a44565b60405180910390a1505050565b6001548111156106a5576040517f08c379a000000000000000000000000000000000000000000000000000000000815260040161069c90610c71565b60405180910390fd5b600080600083815260200190815260200160002090503373ffffffffffffffffffffffffffffffffffffffff168160000160009054906101000a900473ffffffffffffffffffffffffffffffffffffffff1673ffffffffffffffffffffffffffffffffffffffff161461074d576040517f08c379a000000000000000000000000000000000000000000000000000000000815260040161074490610eb3565b60405180910390fd5b8060040160009054906101000a900460ff161561079f576040517f08c379a000000000000000000000000000000000000000000000000000000000815260040161079690610d6f565b60405180910390fd5b60008160000160009054906101000a900473ffffffffffffffffffffffffffffffffffffffff1673ffffffffffffffffffffffffffffffffffffffff1682600301546040516107ed90610dc0565b60006040518083038185875af1925050503d806000811461082a576040519150601f19603f3d011682016040523d82523d6000602084013e61082f565b606091505b5050905080610873576040517f08c379a000000000000000000000000000000000000000000000000000000000815260040161086a90610f1f565b60405180910390fd5b600080848152602001908152602001600020600080820160006101000a81549073ffffffffffffffffffffffffffffffffffffffff02191690556001820160006101000a81549073ffffffffffffffffffffffffffffffffffffffff02191690556002820160006101000a81549073ffffffffffffffffffffffffffffffffffffffff021916905560038201600090556004820160006101000a81549060ff02191690555050505050565b600080fd5b6000819050919050565b61093681610923565b811461094157600080fd5b50565b6000813590506109538161092d565b92915050565b60006020828403121561096f5761096e61091e565b5b600061097d84828501610944565b91505092915050565b600073ffffffffffffffffffffffffffffffffffffffff82169050919050565b60006109b182610986565b9050919050565b6109c1816109a6565b82525050565b6109d081610923565b82525050565b60008115159050919050565b6109eb816109d6565b82525050565b600060a082019050610a0660008301886109b8565b610a1360208301876109b8565b610a2060408301866109b8565b610a2d60608301856109c7565b610a3a60808301846109e2565b9695505050505050565b6000602082019050610a5960008301846109c7565b92915050565b610a68816109a6565b8114610a7357600080fd5b50565b600081359050610a8581610a5f565b92915050565b600080600060608486031215610aa457610aa361091e565b5b6000610ab286828701610a76565b9350506020610ac386828701610a76565b9250506040610ad486828701610944565b9150509250925092565b600082825260208201905092915050565b7f496e636f727265637420616d6f756e742073656e740000000000000000000000600082015250565b6000610b25601583610ade565b9150610b3082610aef565b602082019050919050565b60006020820190508181036000830152610b5481610b18565b9050919050565b7f4e487b7100000000000000000000000000000000000000000000000000000000600052601160045260246000fd5b6000610b9582610923565b91507fffffffffffffffffffffffffffffffffffffffffffffffffffffffffffffffff8203610bc757610bc6610b5b565b5b600182019050919050565b600060a082019050610be760008301886109c7565b610bf460208301876109b8565b610c0160408301866109b8565b610c0e60608301856109b8565b610c1b60808301846109c7565b9695505050505050565b7f496e76616c696420657363726f77204944000000000000000000000000000000600082015250565b6000610c5b601183610ade565b9150610c6682610c25565b602082019050919050565b60006020820190508181036000830152610c8a81610c4e565b9050919050565b7f4f6e6c792074686520617262697465722063616e20636f6d706c65746520746860008201527f6520657363726f77000000000000000000000000000000000000000000000000602082015250565b6000610ced602883610ade565b9150610cf882610c91565b604082019050919050565b60006020820190508181036000830152610d1c81610ce0565b9050919050565b7f457363726f7720616c726561647920636f6d706c657465640000000000000000600082015250565b6000610d59601883610ade565b9150610d6482610d23565b602082019050919050565b60006020820190508181036000830152610d8881610d4c565b9050919050565b600081905092915050565b50565b6000610daa600083610d8f565b9150610db582610d9a565b600082019050919050565b6000610dcb82610d9d565b9150819050919050565b7f5472616e7366657220746f2073656c6c6572206661696c656400000000000000600082015250565b6000610e0b601983610ade565b9150610e1682610dd5565b602082019050919050565b60006020820190508181036000830152610e3a81610dfe565b9050919050565b7f4f6e6c79207468652062757965722063616e2063616e63656c2074686520657360008201527f63726f7700000000000000000000000000000000000000000000000000000000602082015250565b6000610e9d602483610ade565b9150610ea882610e41565b604082019050919050565b60006020820190508181036000830152610ecc81610e90565b9050919050565b7f526566756e6420746f206275796572206661696c656400000000000000000000600082015250565b6000610f09601683610ade565b9150610f1482610ed3565b602082019050919050565b60006020820190508181036000830152610f3881610efc565b905091905056fea26469706673582212200232e90d617de07d49fe117d01dd7d9301486e8eadaac72f00fda4f877e8338364736f6c63430008140033",
  "immutableReferences": {},
  "source": "// SPDX-License-Identifier: MIT\r\npragma solidity ^0.8.0;\r\n\r\ncontract EscrowContract {\r\n    struct Escrow {\r\n        address buyer;\r\n        address seller;\r\n        address arbiter;\r\n        uint256 amount;\r\n        bool isCompleted;\r\n    }\r\n\r\n    mapping(uint256 => Escrow) public escrows;\r\n    uint256 public escrowCount;\r\n\r\n    event EscrowCreated(uint256 escrowId, address buyer, address seller, address arbiter, uint256 amount);\r\n    event EscrowCompleted(uint256 escrowId);\r\n\r\n    function createEscrow(address _seller, address _arbiter, uint256 _amount) public payable {\r\n        require(msg.value == _amount, \"Incorrect amount sent\");\r\n\r\n        escrowCount++;\r\n        escrows[escrowCount] = Escrow({\r\n            buyer: msg.sender,\r\n            seller: _seller,\r\n            arbiter: _arbiter,\r\n            amount: _amount,\r\n            isCompleted: false\r\n        });\r\n\r\n        emit EscrowCreated(escrowCount, msg.sender, _seller, _arbiter, _amount);\r\n    }\r\n\r\n    function completeEscrow(uint256 _escrowId) public {\r\n        require(_escrowId <= escrowCount, \"Invalid escrow ID\");\r\n        Escrow storage escrow = escrows[_escrowId];\r\n        require(escrow.arbiter == msg.sender, \"Only the arbiter can complete the escrow\");\r\n        require(!escrow.isCompleted, \"Escrow already completed\");\r\n\r\n        escrow.isCompleted = true;\r\n        (bool success, ) = payable(escrow.seller).call{value: escrow.amount}(\"\");\r\n        require(success, \"Transfer to seller failed\");\r\n\r\n        emit EscrowCompleted(_escrowId);\r\n    }\r\n\r\n    function cancelEscrow(uint256 _escrowId) public {\r\n        require(_escrowId <= escrowCount, \"Invalid escrow ID\");\r\n        Escrow storage escrow = escrows[_escrowId];\r\n        require(escrow.buyer == msg.sender, \"Only the buyer can cancel the escrow\");\r\n        require(!escrow.isCompleted, \"Escrow already completed\");\r\n\r\n        (bool success, ) = payable(escrow.buyer).call{value: escrow.amount}(\"\");\r\n        require(success, \"Refund to buyer failed\");\r\n\r\n        delete escrows[_escrowId];\r\n    }\r\n}\r\n",
  "sourcePath": "C:\\Users\\dannd\\Desktop\\Licenta-WORK\\real-estate-licenta\\contracts\\EscrowContract.sol",
  "compiler": {
    "name": "solc",
    "version": "0.8.20+commit.a1b79de6.Emscripten.clang"
  },
  "schemaVersion": "3.4.16",
  "updatedAt": "2024-03-18T14:21:52.277Z",
  "networkType": "ethereum",
  "devdoc": {
    "kind": "dev",
    "methods": {},
    "version": 1
  },
  "userdoc": {
    "kind": "user",
    "methods": {},
    "version": 1
  }
}