{
  "contractName": "RealEstateContract",
  "abi": [
    {
      "inputs": [],
      "stateMutability": "nonpayable",
      "type": "constructor"
    },
    {
      "inputs": [
        {
          "internalType": "address",
          "name": "sender",
          "type": "address"
        },
        {
          "internalType": "uint256",
          "name": "tokenId",
          "type": "uint256"
        },
        {
          "internalType": "address",
          "name": "owner",
          "type": "address"
        }
      ],
      "name": "ERC721IncorrectOwner",
      "type": "error"
    },
    {
      "inputs": [
        {
          "internalType": "address",
          "name": "operator",
          "type": "address"
        },
        {
          "internalType": "uint256",
          "name": "tokenId",
          "type": "uint256"
        }
      ],
      "name": "ERC721InsufficientApproval",
      "type": "error"
    },
    {
      "inputs": [
        {
          "internalType": "address",
          "name": "approver",
          "type": "address"
        }
      ],
      "name": "ERC721InvalidApprover",
      "type": "error"
    },
    {
      "inputs": [
        {
          "internalType": "address",
          "name": "operator",
          "type": "address"
        }
      ],
      "name": "ERC721InvalidOperator",
      "type": "error"
    },
    {
      "inputs": [
        {
          "internalType": "address",
          "name": "owner",
          "type": "address"
        }
      ],
      "name": "ERC721InvalidOwner",
      "type": "error"
    },
    {
      "inputs": [
        {
          "internalType": "address",
          "name": "receiver",
          "type": "address"
        }
      ],
      "name": "ERC721InvalidReceiver",
      "type": "error"
    },
    {
      "inputs": [
        {
          "internalType": "address",
          "name": "sender",
          "type": "address"
        }
      ],
      "name": "ERC721InvalidSender",
      "type": "error"
    },
    {
      "inputs": [
        {
          "internalType": "uint256",
          "name": "tokenId",
          "type": "uint256"
        }
      ],
      "name": "ERC721NonexistentToken",
      "type": "error"
    },
    {
      "anonymous": false,
      "inputs": [
        {
          "indexed": true,
          "internalType": "address",
          "name": "owner",
          "type": "address"
        },
        {
          "indexed": true,
          "internalType": "address",
          "name": "approved",
          "type": "address"
        },
        {
          "indexed": true,
          "internalType": "uint256",
          "name": "tokenId",
          "type": "uint256"
        }
      ],
      "name": "Approval",
      "type": "event"
    },
    {
      "anonymous": false,
      "inputs": [
        {
          "indexed": true,
          "internalType": "address",
          "name": "owner",
          "type": "address"
        },
        {
          "indexed": true,
          "internalType": "address",
          "name": "operator",
          "type": "address"
        },
        {
          "indexed": false,
          "internalType": "bool",
          "name": "approved",
          "type": "bool"
        }
      ],
      "name": "ApprovalForAll",
      "type": "event"
    },
    {
      "anonymous": false,
      "inputs": [
        {
          "indexed": false,
          "internalType": "uint256",
          "name": "_fromTokenId",
          "type": "uint256"
        },
        {
          "indexed": false,
          "internalType": "uint256",
          "name": "_toTokenId",
          "type": "uint256"
        }
      ],
      "name": "BatchMetadataUpdate",
      "type": "event"
    },
    {
      "anonymous": false,
      "inputs": [
        {
          "indexed": false,
          "internalType": "uint256",
          "name": "_tokenId",
          "type": "uint256"
        }
      ],
      "name": "MetadataUpdate",
      "type": "event"
    },
    {
      "anonymous": false,
      "inputs": [
        {
          "indexed": false,
          "internalType": "uint256",
          "name": "tokenId",
          "type": "uint256"
        },
        {
          "indexed": false,
          "internalType": "string",
          "name": "imageUrl",
          "type": "string"
        },
        {
          "components": [
            {
              "internalType": "string",
              "name": "name",
              "type": "string"
            },
            {
              "internalType": "string",
              "name": "description",
              "type": "string"
            },
            {
              "internalType": "uint256",
              "name": "price",
              "type": "uint256"
            }
          ],
          "indexed": false,
          "internalType": "struct RealEstateContract.PropertyMetadata",
          "name": "metadata",
          "type": "tuple"
        }
      ],
      "name": "PropertyListed",
      "type": "event"
    },
    {
      "anonymous": false,
      "inputs": [
        {
          "indexed": false,
          "internalType": "uint256",
          "name": "tokenId",
          "type": "uint256"
        },
        {
          "indexed": false,
          "internalType": "address",
          "name": "newOwner",
          "type": "address"
        },
        {
          "indexed": false,
          "internalType": "uint256",
          "name": "price",
          "type": "uint256"
        }
      ],
      "name": "PropertySold",
      "type": "event"
    },
    {
      "anonymous": false,
      "inputs": [
        {
          "indexed": true,
          "internalType": "address",
          "name": "from",
          "type": "address"
        },
        {
          "indexed": true,
          "internalType": "address",
          "name": "to",
          "type": "address"
        },
        {
          "indexed": true,
          "internalType": "uint256",
          "name": "tokenId",
          "type": "uint256"
        }
      ],
      "name": "Transfer",
      "type": "event"
    },
    {
      "inputs": [
        {
          "internalType": "address",
          "name": "to",
          "type": "address"
        },
        {
          "internalType": "uint256",
          "name": "tokenId",
          "type": "uint256"
        }
      ],
      "name": "approve",
      "outputs": [],
      "stateMutability": "nonpayable",
      "type": "function"
    },
    {
      "inputs": [
        {
          "internalType": "address",
          "name": "owner",
          "type": "address"
        }
      ],
      "name": "balanceOf",
      "outputs": [
        {
          "internalType": "uint256",
          "name": "",
          "type": "uint256"
        }
      ],
      "stateMutability": "view",
      "type": "function",
      "constant": true
    },
    {
      "inputs": [
        {
          "internalType": "uint256",
          "name": "tokenId",
          "type": "uint256"
        }
      ],
      "name": "getApproved",
      "outputs": [
        {
          "internalType": "address",
          "name": "",
          "type": "address"
        }
      ],
      "stateMutability": "view",
      "type": "function",
      "constant": true
    },
    {
      "inputs": [
        {
          "internalType": "address",
          "name": "owner",
          "type": "address"
        },
        {
          "internalType": "address",
          "name": "operator",
          "type": "address"
        }
      ],
      "name": "isApprovedForAll",
      "outputs": [
        {
          "internalType": "bool",
          "name": "",
          "type": "bool"
        }
      ],
      "stateMutability": "view",
      "type": "function",
      "constant": true
    },
    {
      "inputs": [],
      "name": "name",
      "outputs": [
        {
          "internalType": "string",
          "name": "",
          "type": "string"
        }
      ],
      "stateMutability": "view",
      "type": "function",
      "constant": true
    },
    {
      "inputs": [],
      "name": "nextTokenId",
      "outputs": [
        {
          "internalType": "uint256",
          "name": "",
          "type": "uint256"
        }
      ],
      "stateMutability": "view",
      "type": "function",
      "constant": true
    },
    {
      "inputs": [
        {
          "internalType": "uint256",
          "name": "tokenId",
          "type": "uint256"
        }
      ],
      "name": "ownerOf",
      "outputs": [
        {
          "internalType": "address",
          "name": "",
          "type": "address"
        }
      ],
      "stateMutability": "view",
      "type": "function",
      "constant": true
    },
    {
      "inputs": [
        {
          "internalType": "uint256",
          "name": "",
          "type": "uint256"
        }
      ],
      "name": "propertyListedForSale",
      "outputs": [
        {
          "internalType": "bool",
          "name": "",
          "type": "bool"
        }
      ],
      "stateMutability": "view",
      "type": "function",
      "constant": true
    },
    {
      "inputs": [
        {
          "internalType": "uint256",
          "name": "",
          "type": "uint256"
        }
      ],
      "name": "propertyMetadata",
      "outputs": [
        {
          "internalType": "string",
          "name": "name",
          "type": "string"
        },
        {
          "internalType": "string",
          "name": "description",
          "type": "string"
        },
        {
          "internalType": "uint256",
          "name": "price",
          "type": "uint256"
        }
      ],
      "stateMutability": "view",
      "type": "function",
      "constant": true
    },
    {
      "inputs": [
        {
          "internalType": "address",
          "name": "from",
          "type": "address"
        },
        {
          "internalType": "address",
          "name": "to",
          "type": "address"
        },
        {
          "internalType": "uint256",
          "name": "tokenId",
          "type": "uint256"
        }
      ],
      "name": "safeTransferFrom",
      "outputs": [],
      "stateMutability": "nonpayable",
      "type": "function"
    },
    {
      "inputs": [
        {
          "internalType": "address",
          "name": "from",
          "type": "address"
        },
        {
          "internalType": "address",
          "name": "to",
          "type": "address"
        },
        {
          "internalType": "uint256",
          "name": "tokenId",
          "type": "uint256"
        },
        {
          "internalType": "bytes",
          "name": "data",
          "type": "bytes"
        }
      ],
      "name": "safeTransferFrom",
      "outputs": [],
      "stateMutability": "nonpayable",
      "type": "function"
    },
    {
      "inputs": [
        {
          "internalType": "address",
          "name": "operator",
          "type": "address"
        },
        {
          "internalType": "bool",
          "name": "approved",
          "type": "bool"
        }
      ],
      "name": "setApprovalForAll",
      "outputs": [],
      "stateMutability": "nonpayable",
      "type": "function"
    },
    {
      "inputs": [
        {
          "internalType": "bytes4",
          "name": "interfaceId",
          "type": "bytes4"
        }
      ],
      "name": "supportsInterface",
      "outputs": [
        {
          "internalType": "bool",
          "name": "",
          "type": "bool"
        }
      ],
      "stateMutability": "view",
      "type": "function",
      "constant": true
    },
    {
      "inputs": [],
      "name": "symbol",
      "outputs": [
        {
          "internalType": "string",
          "name": "",
          "type": "string"
        }
      ],
      "stateMutability": "view",
      "type": "function",
      "constant": true
    },
    {
      "inputs": [
        {
          "internalType": "uint256",
          "name": "tokenId",
          "type": "uint256"
        }
      ],
      "name": "tokenURI",
      "outputs": [
        {
          "internalType": "string",
          "name": "",
          "type": "string"
        }
      ],
      "stateMutability": "view",
      "type": "function",
      "constant": true
    },
    {
      "inputs": [
        {
          "internalType": "address",
          "name": "from",
          "type": "address"
        },
        {
          "internalType": "address",
          "name": "to",
          "type": "address"
        },
        {
          "internalType": "uint256",
          "name": "tokenId",
          "type": "uint256"
        }
      ],
      "name": "transferFrom",
      "outputs": [],
      "stateMutability": "nonpayable",
      "type": "function"
    },
    {
      "inputs": [
        {
          "internalType": "string",
          "name": "_name",
          "type": "string"
        },
        {
          "internalType": "string",
          "name": "_description",
          "type": "string"
        },
        {
          "internalType": "uint256",
          "name": "_price",
          "type": "uint256"
        },
        {
          "internalType": "string",
          "name": "_imageUrl",
          "type": "string"
        }
      ],
      "name": "listProperty",
      "outputs": [],
      "stateMutability": "nonpayable",
      "type": "function"
    },
    {
      "inputs": [
        {
          "internalType": "uint256",
          "name": "_tokenId",
          "type": "uint256"
        }
      ],
      "name": "buyProperty",
      "outputs": [],
      "stateMutability": "payable",
      "type": "function",
      "payable": true
    },
    {
      "inputs": [
        {
          "internalType": "uint256",
          "name": "_tokenId",
          "type": "uint256"
        },
        {
          "internalType": "string",
          "name": "_name",
          "type": "string"
        },
        {
          "internalType": "string",
          "name": "_description",
          "type": "string"
        },
        {
          "internalType": "uint256",
          "name": "_price",
          "type": "uint256"
        }
      ],
      "name": "editPropertyMetadata",
      "outputs": [],
      "stateMutability": "nonpayable",
      "type": "function"
    },
    {
      "inputs": [
        {
          "internalType": "uint256",
          "name": "_tokenId",
          "type": "uint256"
        }
      ],
      "name": "deleteProperty",
      "outputs": [],
      "stateMutability": "nonpayable",
      "type": "function"
    }
  ],
  "bytecode": "0x60806040523480156200001157600080fd5b506040518060400160405280600a81526020017f5265616c457374617465000000000000000000000000000000000000000000008152506040518060400160405280600581526020017f524553544e00000000000000000000000000000000000000000000000000000081525081600090816200008f919062000324565b508060019081620000a1919062000324565b5050506200040b565b600081519050919050565b7f4e487b7100000000000000000000000000000000000000000000000000000000600052604160045260246000fd5b7f4e487b7100000000000000000000000000000000000000000000000000000000600052602260045260246000fd5b600060028204905060018216806200012c57607f821691505b602082108103620001425762000141620000e4565b5b50919050565b60008190508160005260206000209050919050565b60006020601f8301049050919050565b600082821b905092915050565b600060088302620001ac7fffffffffffffffffffffffffffffffffffffffffffffffffffffffffffffffff826200016d565b620001b886836200016d565b95508019841693508086168417925050509392505050565b6000819050919050565b6000819050919050565b600062000205620001ff620001f984620001d0565b620001da565b620001d0565b9050919050565b6000819050919050565b6200022183620001e4565b6200023962000230826200020c565b8484546200017a565b825550505050565b600090565b6200025062000241565b6200025d81848462000216565b505050565b5b8181101562000285576200027960008262000246565b60018101905062000263565b5050565b601f821115620002d4576200029e8162000148565b620002a9846200015d565b81016020851015620002b9578190505b620002d1620002c8856200015d565b83018262000262565b50505b505050565b600082821c905092915050565b6000620002f960001984600802620002d9565b1980831691505092915050565b6000620003148383620002e6565b9150826002028217905092915050565b6200032f82620000aa565b67ffffffffffffffff8111156200034b576200034a620000b5565b5b62000357825462000113565b6200036482828562000289565b600060209050601f8311600181146200039c576000841562000387578287015190505b62000393858262000306565b86555062000403565b601f198416620003ac8662000148565b60005b82811015620003d657848901518255600182019150602085019450602081019050620003af565b86831015620003f65784890151620003f2601f891682620002e6565b8355505b6001600288020188555050505b505050505050565b61340b806200041b6000396000f3fe60806040526004361061011f5760003560e01c806370a08231116100a0578063b88d4fde11610064578063b88d4fde146103e8578063c87b56dd14610411578063d20275c61461044e578063e905e6431461048d578063e985e9c5146104b65761011f565b806370a082311461030357806375794a3c14610340578063819cefe21461036b57806395d89b4114610394578063a22cb465146103bf5761011f565b806323b872dd116100e757806323b872dd1461021b57806342842e0e146102445780636352211e1461026d5780636c6b2f22146102aa5780636fa830a6146102e75761011f565b806301ffc9a71461012457806306fdde0314610161578063081812fc1461018c578063095ea7b3146101c9578063170140f1146101f2575b600080fd5b34801561013057600080fd5b5061014b60048036038101906101469190612305565b6104f3565b604051610158919061234d565b60405180910390f35b34801561016d57600080fd5b50610176610554565b60405161018391906123f8565b60405180910390f35b34801561019857600080fd5b506101b360048036038101906101ae9190612450565b6105e6565b6040516101c091906124be565b60405180910390f35b3480156101d557600080fd5b506101f060048036038101906101eb9190612505565b610602565b005b3480156101fe57600080fd5b5061021960048036038101906102149190612450565b610618565b005b34801561022757600080fd5b50610242600480360381019061023d9190612545565b610704565b005b34801561025057600080fd5b5061026b60048036038101906102669190612545565b610806565b005b34801561027957600080fd5b50610294600480360381019061028f9190612450565b610826565b6040516102a191906124be565b60405180910390f35b3480156102b657600080fd5b506102d160048036038101906102cc9190612450565b610838565b6040516102de919061234d565b60405180910390f35b61030160048036038101906102fc9190612450565b610858565b005b34801561030f57600080fd5b5061032a60048036038101906103259190612598565b610a51565b60405161033791906125d4565b60405180910390f35b34801561034c57600080fd5b50610355610b0b565b60405161036291906125d4565b60405180910390f35b34801561037757600080fd5b50610392600480360381019061038d9190612724565b610b11565b005b3480156103a057600080fd5b506103a9610c27565b6040516103b691906123f8565b60405180910390f35b3480156103cb57600080fd5b506103e660048036038101906103e1919061280b565b610cb9565b005b3480156103f457600080fd5b5061040f600480360381019061040a91906128ec565b610ccf565b005b34801561041d57600080fd5b5061043860048036038101906104339190612450565b610cec565b60405161044591906123f8565b60405180910390f35b34801561045a57600080fd5b5061047560048036038101906104709190612450565b610dff565b6040516104849392919061296f565b60405180910390f35b34801561049957600080fd5b506104b460048036038101906104af91906129b4565b610f39565b005b3480156104c257600080fd5b506104dd60048036038101906104d89190612a53565b611093565b6040516104ea919061234d565b60405180910390f35b6000634906490660e01b7bffffffffffffffffffffffffffffffffffffffffffffffffffffffff1916827bffffffffffffffffffffffffffffffffffffffffffffffffffffffff1916148061054d575061054c82611127565b5b9050919050565b60606000805461056390612ac2565b80601f016020809104026020016040519081016040528092919081815260200182805461058f90612ac2565b80156105dc5780601f106105b1576101008083540402835291602001916105dc565b820191906000526020600020905b8154815290600101906020018083116105bf57829003601f168201915b5050505050905090565b60006105f182611209565b506105fb82611291565b9050919050565b610614828261060f6112ce565b6112d6565b5050565b3373ffffffffffffffffffffffffffffffffffffffff1661063882610826565b73ffffffffffffffffffffffffffffffffffffffff161461068e576040517f08c379a000000000000000000000000000000000000000000000000000000000815260040161068590612b65565b60405180910390fd5b610697816112e8565b60076000828152602001908152602001600020600080820160006106bb919061223c565b6001820160006106cb919061223c565b6002820160009055505060006008600083815260200190815260200160002060006101000a81548160ff02191690831515021790555050565b600073ffffffffffffffffffffffffffffffffffffffff168273ffffffffffffffffffffffffffffffffffffffff16036107765760006040517f64a0ae9200000000000000000000000000000000000000000000000000000000815260040161076d91906124be565b60405180910390fd5b600061078a83836107856112ce565b61136e565b90508373ffffffffffffffffffffffffffffffffffffffff168173ffffffffffffffffffffffffffffffffffffffff1614610800578382826040517f64283d7b0000000000000000000000000000000000000000000000000000000081526004016107f793929190612b85565b60405180910390fd5b50505050565b61082183838360405180602001604052806000815250610ccf565b505050565b600061083182611209565b9050919050565b60086020528060005260406000206000915054906101000a900460ff1681565b600073ffffffffffffffffffffffffffffffffffffffff1661087982610826565b73ffffffffffffffffffffffffffffffffffffffff16036108cf576040517f08c379a00000000000000000000000000000000000000000000000000000000081526004016108c690612c08565b60405180910390fd5b6008600082815260200190815260200160002060009054906101000a900460ff1661092f576040517f08c379a000000000000000000000000000000000000000000000000000000000815260040161092690612c74565b60405180910390fd5b60076000828152602001908152602001600020600201543414610987576040517f08c379a000000000000000000000000000000000000000000000000000000000815260040161097e90612ce0565b60405180910390fd5b600061099282610826565b905061099f813384611588565b60006008600084815260200190815260200160002060006101000a81548160ff0219169083151502179055508073ffffffffffffffffffffffffffffffffffffffff166108fc349081150290604051600060405180830381858888f19350505050158015610a11573d6000803e3d6000fd5b507ff17a6666765db393a6218bb324c4de5cc60c9ee3b981bd102ba416effc13b895823334604051610a4593929190612d00565b60405180910390a15050565b60008073ffffffffffffffffffffffffffffffffffffffff168273ffffffffffffffffffffffffffffffffffffffff1603610ac45760006040517f89c62b64000000000000000000000000000000000000000000000000000000008152600401610abb91906124be565b60405180910390fd5b600360008373ffffffffffffffffffffffffffffffffffffffff1673ffffffffffffffffffffffffffffffffffffffff168152602001908152602001600020549050919050565b60095481565b600060096000815480929190610b2690612d66565b919050559050610b3633826116f5565b610b408183611713565b604051806060016040528086815260200185815260200184815250600760008381526020019081526020016000206000820151816000019081610b839190612f5a565b506020820151816001019081610b999190612f5a565b506040820151816002015590505060016008600083815260200190815260200160002060006101000a81548160ff0219169083151502179055507fe55b64cc0c680f630a010980a16e1f97b1081ac27257278b89e9c7db128fe210818360076000858152602001908152602001600020604051610c1893929190613163565b60405180910390a15050505050565b606060018054610c3690612ac2565b80601f0160208091040260200160405190810160405280929190818152602001828054610c6290612ac2565b8015610caf5780601f10610c8457610100808354040283529160200191610caf565b820191906000526020600020905b815481529060010190602001808311610c9257829003601f168201915b5050505050905090565b610ccb610cc46112ce565b838361176f565b5050565b610cda848484610704565b610ce6848484846118de565b50505050565b6060610cf782611209565b506000600660008481526020019081526020016000208054610d1890612ac2565b80601f0160208091040260200160405190810160405280929190818152602001828054610d4490612ac2565b8015610d915780601f10610d6657610100808354040283529160200191610d91565b820191906000526020600020905b815481529060010190602001808311610d7457829003601f168201915b505050505090506000610da2611a95565b90506000815103610db7578192505050610dfa565b600082511115610dec578082604051602001610dd49291906131e4565b60405160208183030381529060405292505050610dfa565b610df584611aac565b925050505b919050565b6007602052806000526040600020600091509050806000018054610e2290612ac2565b80601f0160208091040260200160405190810160405280929190818152602001828054610e4e90612ac2565b8015610e9b5780601f10610e7057610100808354040283529160200191610e9b565b820191906000526020600020905b815481529060010190602001808311610e7e57829003601f168201915b505050505090806001018054610eb090612ac2565b80601f0160208091040260200160405190810160405280929190818152602001828054610edc90612ac2565b8015610f295780601f10610efe57610100808354040283529160200191610f29565b820191906000526020600020905b815481529060010190602001808311610f0c57829003601f168201915b5050505050908060020154905083565b600073ffffffffffffffffffffffffffffffffffffffff16610f5a85610826565b73ffffffffffffffffffffffffffffffffffffffff1603610fb0576040517f08c379a0000000000000000000000000000000000000000000000000000000008152600401610fa790612c08565b60405180910390fd5b3373ffffffffffffffffffffffffffffffffffffffff16610fd085610826565b73ffffffffffffffffffffffffffffffffffffffff1614611026576040517f08c379a000000000000000000000000000000000000000000000000000000000815260040161101d9061327a565b60405180910390fd5b6040518060600160405280848152602001838152602001828152506007600086815260200190815260200160002060008201518160000190816110699190612f5a565b50602082015181600101908161107f9190612f5a565b506040820151816002015590505050505050565b6000600560008473ffffffffffffffffffffffffffffffffffffffff1673ffffffffffffffffffffffffffffffffffffffff16815260200190815260200160002060008373ffffffffffffffffffffffffffffffffffffffff1673ffffffffffffffffffffffffffffffffffffffff16815260200190815260200160002060009054906101000a900460ff16905092915050565b60007f80ac58cd000000000000000000000000000000000000000000000000000000007bffffffffffffffffffffffffffffffffffffffffffffffffffffffff1916827bffffffffffffffffffffffffffffffffffffffffffffffffffffffff191614806111f257507f5b5e139f000000000000000000000000000000000000000000000000000000007bffffffffffffffffffffffffffffffffffffffffffffffffffffffff1916827bffffffffffffffffffffffffffffffffffffffffffffffffffffffff1916145b80611202575061120182611b15565b5b9050919050565b60008061121583611b7f565b9050600073ffffffffffffffffffffffffffffffffffffffff168173ffffffffffffffffffffffffffffffffffffffff160361128857826040517f7e27328900000000000000000000000000000000000000000000000000000000815260040161127f91906125d4565b60405180910390fd5b80915050919050565b60006004600083815260200190815260200160002060009054906101000a900473ffffffffffffffffffffffffffffffffffffffff169050919050565b600033905090565b6112e38383836001611bbc565b505050565b60006112f7600083600061136e565b9050600073ffffffffffffffffffffffffffffffffffffffff168173ffffffffffffffffffffffffffffffffffffffff160361136a57816040517f7e27328900000000000000000000000000000000000000000000000000000000815260040161136191906125d4565b60405180910390fd5b5050565b60008061137a84611b7f565b9050600073ffffffffffffffffffffffffffffffffffffffff168373ffffffffffffffffffffffffffffffffffffffff16146113bc576113bb818486611d81565b5b600073ffffffffffffffffffffffffffffffffffffffff168173ffffffffffffffffffffffffffffffffffffffff161461144d576113fe600085600080611bbc565b6001600360008373ffffffffffffffffffffffffffffffffffffffff1673ffffffffffffffffffffffffffffffffffffffff168152602001908152602001600020600082825403925050819055505b600073ffffffffffffffffffffffffffffffffffffffff168573ffffffffffffffffffffffffffffffffffffffff16146114d0576001600360008773ffffffffffffffffffffffffffffffffffffffff1673ffffffffffffffffffffffffffffffffffffffff168152602001908152602001600020600082825401925050819055505b846002600086815260200190815260200160002060006101000a81548173ffffffffffffffffffffffffffffffffffffffff021916908373ffffffffffffffffffffffffffffffffffffffff160217905550838573ffffffffffffffffffffffffffffffffffffffff168273ffffffffffffffffffffffffffffffffffffffff167fddf252ad1be2c89b69c2b068fc378daa952ba7f163c4a11628f55a4df523b3ef60405160405180910390a4809150509392505050565b600073ffffffffffffffffffffffffffffffffffffffff168273ffffffffffffffffffffffffffffffffffffffff16036115fa5760006040517f64a0ae920000000000000000000000000000000000000000000000000000000081526004016115f191906124be565b60405180910390fd5b60006116088383600061136e565b9050600073ffffffffffffffffffffffffffffffffffffffff168173ffffffffffffffffffffffffffffffffffffffff160361167b57816040517f7e27328900000000000000000000000000000000000000000000000000000000815260040161167291906125d4565b60405180910390fd5b8373ffffffffffffffffffffffffffffffffffffffff168173ffffffffffffffffffffffffffffffffffffffff16146116ef578382826040517f64283d7b0000000000000000000000000000000000000000000000000000000081526004016116e693929190612b85565b60405180910390fd5b50505050565b61170f828260405180602001604052806000815250611e45565b5050565b806006600084815260200190815260200160002090816117339190612f5a565b507ff8e1a15aba9398e019f0b49df1a4fde98ee17ae345cb5f6b5e2c27f5033e8ce78260405161176391906125d4565b60405180910390a15050565b600073ffffffffffffffffffffffffffffffffffffffff168273ffffffffffffffffffffffffffffffffffffffff16036117e057816040517f5b08ba180000000000000000000000000000000000000000000000000000000081526004016117d791906124be565b60405180910390fd5b80600560008573ffffffffffffffffffffffffffffffffffffffff1673ffffffffffffffffffffffffffffffffffffffff16815260200190815260200160002060008473ffffffffffffffffffffffffffffffffffffffff1673ffffffffffffffffffffffffffffffffffffffff16815260200190815260200160002060006101000a81548160ff0219169083151502179055508173ffffffffffffffffffffffffffffffffffffffff168373ffffffffffffffffffffffffffffffffffffffff167f17307eab39ab6107e8899845ad3d59bd9653f200f220920489ca2b5937696c31836040516118d1919061234d565b60405180910390a3505050565b60008373ffffffffffffffffffffffffffffffffffffffff163b1115611a8f578273ffffffffffffffffffffffffffffffffffffffff1663150b7a026119226112ce565b8685856040518563ffffffff1660e01b815260040161194494939291906132ef565b6020604051808303816000875af192505050801561198057506040513d601f19601f8201168201806040525081019061197d9190613350565b60015b611a04573d80600081146119b0576040519150601f19603f3d011682016040523d82523d6000602084013e6119b5565b606091505b5060008151036119fc57836040517f64a0ae920000000000000000000000000000000000000000000000000000000081526004016119f391906124be565b60405180910390fd5b805181602001fd5b63150b7a0260e01b7bffffffffffffffffffffffffffffffffffffffffffffffffffffffff1916817bffffffffffffffffffffffffffffffffffffffffffffffffffffffff191614611a8d57836040517f64a0ae92000000000000000000000000000000000000000000000000000000008152600401611a8491906124be565b60405180910390fd5b505b50505050565b606060405180602001604052806000815250905090565b6060611ab782611209565b506000611ac2611a95565b90506000815111611ae25760405180602001604052806000815250611b0d565b80611aec84611e61565b604051602001611afd9291906131e4565b6040516020818303038152906040525b915050919050565b60007f01ffc9a7000000000000000000000000000000000000000000000000000000007bffffffffffffffffffffffffffffffffffffffffffffffffffffffff1916827bffffffffffffffffffffffffffffffffffffffffffffffffffffffff1916149050919050565b60006002600083815260200190815260200160002060009054906101000a900473ffffffffffffffffffffffffffffffffffffffff169050919050565b8080611bf55750600073ffffffffffffffffffffffffffffffffffffffff168273ffffffffffffffffffffffffffffffffffffffff1614155b15611d29576000611c0584611209565b9050600073ffffffffffffffffffffffffffffffffffffffff168373ffffffffffffffffffffffffffffffffffffffff1614158015611c7057508273ffffffffffffffffffffffffffffffffffffffff168173ffffffffffffffffffffffffffffffffffffffff1614155b8015611c835750611c818184611093565b155b15611cc557826040517fa9fbf51f000000000000000000000000000000000000000000000000000000008152600401611cbc91906124be565b60405180910390fd5b8115611d2757838573ffffffffffffffffffffffffffffffffffffffff168273ffffffffffffffffffffffffffffffffffffffff167f8c5be1e5ebec7d5bd14f71427d1e84f3dd0314c0f7b2291e5b200ac8c7c3b92560405160405180910390a45b505b836004600085815260200190815260200160002060006101000a81548173ffffffffffffffffffffffffffffffffffffffff021916908373ffffffffffffffffffffffffffffffffffffffff16021790555050505050565b611d8c838383611f2f565b611e4057600073ffffffffffffffffffffffffffffffffffffffff168373ffffffffffffffffffffffffffffffffffffffff1603611e0157806040517f7e273289000000000000000000000000000000000000000000000000000000008152600401611df891906125d4565b60405180910390fd5b81816040517f177e802f000000000000000000000000000000000000000000000000000000008152600401611e3792919061337d565b60405180910390fd5b505050565b611e4f8383611ff0565b611e5c60008484846118de565b505050565b606060006001611e70846120e9565b01905060008167ffffffffffffffff811115611e8f57611e8e6125f9565b5b6040519080825280601f01601f191660200182016040528015611ec15781602001600182028036833780820191505090505b509050600082602001820190505b600115611f24578080600190039150507f3031323334353637383961626364656600000000000000000000000000000000600a86061a8153600a8581611f1857611f176133a6565b5b04945060008503611ecf575b819350505050919050565b60008073ffffffffffffffffffffffffffffffffffffffff168373ffffffffffffffffffffffffffffffffffffffff1614158015611fe757508273ffffffffffffffffffffffffffffffffffffffff168473ffffffffffffffffffffffffffffffffffffffff161480611fa85750611fa78484611093565b5b80611fe657508273ffffffffffffffffffffffffffffffffffffffff16611fce83611291565b73ffffffffffffffffffffffffffffffffffffffff16145b5b90509392505050565b600073ffffffffffffffffffffffffffffffffffffffff168273ffffffffffffffffffffffffffffffffffffffff16036120625760006040517f64a0ae9200000000000000000000000000000000000000000000000000000000815260040161205991906124be565b60405180910390fd5b60006120708383600061136e565b9050600073ffffffffffffffffffffffffffffffffffffffff168173ffffffffffffffffffffffffffffffffffffffff16146120e45760006040517f73c6ac6e0000000000000000000000000000000000000000000000000000000081526004016120db91906124be565b60405180910390fd5b505050565b600080600090507a184f03e93ff9f4daa797ed6e38ed64bf6a1f0100000000000000008310612147577a184f03e93ff9f4daa797ed6e38ed64bf6a1f010000000000000000838161213d5761213c6133a6565b5b0492506040810190505b6d04ee2d6d415b85acef81000000008310612184576d04ee2d6d415b85acef8100000000838161217a576121796133a6565b5b0492506020810190505b662386f26fc1000083106121b357662386f26fc1000083816121a9576121a86133a6565b5b0492506010810190505b6305f5e10083106121dc576305f5e10083816121d2576121d16133a6565b5b0492506008810190505b61271083106122015761271083816121f7576121f66133a6565b5b0492506004810190505b60648310612224576064838161221a576122196133a6565b5b0492506002810190505b600a8310612233576001810190505b80915050919050565b50805461224890612ac2565b6000825580601f1061225a5750612279565b601f016020900490600052602060002090810190612278919061227c565b5b50565b5b8082111561229557600081600090555060010161227d565b5090565b6000604051905090565b600080fd5b600080fd5b60007fffffffff0000000000000000000000000000000000000000000000000000000082169050919050565b6122e2816122ad565b81146122ed57600080fd5b50565b6000813590506122ff816122d9565b92915050565b60006020828403121561231b5761231a6122a3565b5b6000612329848285016122f0565b91505092915050565b60008115159050919050565b61234781612332565b82525050565b6000602082019050612362600083018461233e565b92915050565b600081519050919050565b600082825260208201905092915050565b60005b838110156123a2578082015181840152602081019050612387565b60008484015250505050565b6000601f19601f8301169050919050565b60006123ca82612368565b6123d48185612373565b93506123e4818560208601612384565b6123ed816123ae565b840191505092915050565b6000602082019050818103600083015261241281846123bf565b905092915050565b6000819050919050565b61242d8161241a565b811461243857600080fd5b50565b60008135905061244a81612424565b92915050565b600060208284031215612466576124656122a3565b5b60006124748482850161243b565b91505092915050565b600073ffffffffffffffffffffffffffffffffffffffff82169050919050565b60006124a88261247d565b9050919050565b6124b88161249d565b82525050565b60006020820190506124d360008301846124af565b92915050565b6124e28161249d565b81146124ed57600080fd5b50565b6000813590506124ff816124d9565b92915050565b6000806040838503121561251c5761251b6122a3565b5b600061252a858286016124f0565b925050602061253b8582860161243b565b9150509250929050565b60008060006060848603121561255e5761255d6122a3565b5b600061256c868287016124f0565b935050602061257d868287016124f0565b925050604061258e8682870161243b565b9150509250925092565b6000602082840312156125ae576125ad6122a3565b5b60006125bc848285016124f0565b91505092915050565b6125ce8161241a565b82525050565b60006020820190506125e960008301846125c5565b92915050565b600080fd5b600080fd5b7f4e487b7100000000000000000000000000000000000000000000000000000000600052604160045260246000fd5b612631826123ae565b810181811067ffffffffffffffff821117156126505761264f6125f9565b5b80604052505050565b6000612663612299565b905061266f8282612628565b919050565b600067ffffffffffffffff82111561268f5761268e6125f9565b5b612698826123ae565b9050602081019050919050565b82818337600083830152505050565b60006126c76126c284612674565b612659565b9050828152602081018484840111156126e3576126e26125f4565b5b6126ee8482856126a5565b509392505050565b600082601f83011261270b5761270a6125ef565b5b813561271b8482602086016126b4565b91505092915050565b6000806000806080858703121561273e5761273d6122a3565b5b600085013567ffffffffffffffff81111561275c5761275b6122a8565b5b612768878288016126f6565b945050602085013567ffffffffffffffff811115612789576127886122a8565b5b612795878288016126f6565b93505060406127a68782880161243b565b925050606085013567ffffffffffffffff8111156127c7576127c66122a8565b5b6127d3878288016126f6565b91505092959194509250565b6127e881612332565b81146127f357600080fd5b50565b600081359050612805816127df565b92915050565b60008060408385031215612822576128216122a3565b5b6000612830858286016124f0565b9250506020612841858286016127f6565b9150509250929050565b600067ffffffffffffffff821115612866576128656125f9565b5b61286f826123ae565b9050602081019050919050565b600061288f61288a8461284b565b612659565b9050828152602081018484840111156128ab576128aa6125f4565b5b6128b68482856126a5565b509392505050565b600082601f8301126128d3576128d26125ef565b5b81356128e384826020860161287c565b91505092915050565b60008060008060808587031215612906576129056122a3565b5b6000612914878288016124f0565b9450506020612925878288016124f0565b93505060406129368782880161243b565b925050606085013567ffffffffffffffff811115612957576129566122a8565b5b612963878288016128be565b91505092959194509250565b6000606082019050818103600083015261298981866123bf565b9050818103602083015261299d81856123bf565b90506129ac60408301846125c5565b949350505050565b600080600080608085870312156129ce576129cd6122a3565b5b60006129dc8782880161243b565b945050602085013567ffffffffffffffff8111156129fd576129fc6122a8565b5b612a09878288016126f6565b935050604085013567ffffffffffffffff811115612a2a57612a296122a8565b5b612a36878288016126f6565b9250506060612a478782880161243b565b91505092959194509250565b60008060408385031215612a6a57612a696122a3565b5b6000612a78858286016124f0565b9250506020612a89858286016124f0565b9150509250929050565b7f4e487b7100000000000000000000000000000000000000000000000000000000600052602260045260246000fd5b60006002820490506001821680612ada57607f821691505b602082108103612aed57612aec612a93565b5b50919050565b7f4f6e6c7920746865206f776e65722063616e2064656c6574652074686520707260008201527f6f70657274790000000000000000000000000000000000000000000000000000602082015250565b6000612b4f602683612373565b9150612b5a82612af3565b604082019050919050565b60006020820190508181036000830152612b7e81612b42565b9050919050565b6000606082019050612b9a60008301866124af565b612ba760208301856125c5565b612bb460408301846124af565b949350505050565b7f50726f706572747920646f6573206e6f74206578697374000000000000000000600082015250565b6000612bf2601783612373565b9150612bfd82612bbc565b602082019050919050565b60006020820190508181036000830152612c2181612be5565b9050919050565b7f50726f7065727479206973206e6f74206c697374656420666f722073616c6500600082015250565b6000612c5e601f83612373565b9150612c6982612c28565b602082019050919050565b60006020820190508181036000830152612c8d81612c51565b9050919050565b7f496e636f727265637420616d6f756e742073656e740000000000000000000000600082015250565b6000612cca601583612373565b9150612cd582612c94565b602082019050919050565b60006020820190508181036000830152612cf981612cbd565b9050919050565b6000606082019050612d1560008301866125c5565b612d2260208301856124af565b612d2f60408301846125c5565b949350505050565b7f4e487b7100000000000000000000000000000000000000000000000000000000600052601160045260246000fd5b6000612d718261241a565b91507fffffffffffffffffffffffffffffffffffffffffffffffffffffffffffffffff8203612da357612da2612d37565b5b600182019050919050565b60008190508160005260206000209050919050565b60006020601f8301049050919050565b600082821b905092915050565b600060088302612e107fffffffffffffffffffffffffffffffffffffffffffffffffffffffffffffffff82612dd3565b612e1a8683612dd3565b95508019841693508086168417925050509392505050565b6000819050919050565b6000612e57612e52612e4d8461241a565b612e32565b61241a565b9050919050565b6000819050919050565b612e7183612e3c565b612e85612e7d82612e5e565b848454612de0565b825550505050565b600090565b612e9a612e8d565b612ea5818484612e68565b505050565b5b81811015612ec957612ebe600082612e92565b600181019050612eab565b5050565b601f821115612f0e57612edf81612dae565b612ee884612dc3565b81016020851015612ef7578190505b612f0b612f0385612dc3565b830182612eaa565b50505b505050565b600082821c905092915050565b6000612f3160001984600802612f13565b1980831691505092915050565b6000612f4a8383612f20565b9150826002028217905092915050565b612f6382612368565b67ffffffffffffffff811115612f7c57612f7b6125f9565b5b612f868254612ac2565b612f91828285612ecd565b600060209050601f831160018114612fc45760008415612fb2578287015190505b612fbc8582612f3e565b865550613024565b601f198416612fd286612dae565b60005b82811015612ffa57848901518255600182019150602085019450602081019050612fd5565b868310156130175784890151613013601f891682612f20565b8355505b6001600288020188555050505b505050505050565b600082825260208201905092915050565b6000815461304a81612ac2565b613054818661302c565b9450600182166000811461306f5760018114613085576130b8565b60ff1983168652811515602002860193506130b8565b61308e85612dae565b60005b838110156130b057815481890152600182019150602081019050613091565b808801955050505b50505092915050565b60008160001c9050919050565b6000819050919050565b60006130eb6130e6836130c1565b6130ce565b9050919050565b6130fb8161241a565b82525050565b6000606083016000808401858303600087015261311e838261303d565b925050600184018583036020870152613137838261303d565b9250506002840154905061314a816130d8565b61315760408701826130f2565b50819250505092915050565b600060608201905061317860008301866125c5565b818103602083015261318a81856123bf565b9050818103604083015261319e8184613101565b9050949350505050565b600081905092915050565b60006131be82612368565b6131c881856131a8565b93506131d8818560208601612384565b80840191505092915050565b60006131f082856131b3565b91506131fc82846131b3565b91508190509392505050565b7f4f6e6c7920746865206f776e65722063616e2065646974207468652070726f7060008201527f6572747900000000000000000000000000000000000000000000000000000000602082015250565b6000613264602483612373565b915061326f82613208565b604082019050919050565b6000602082019050818103600083015261329381613257565b9050919050565b600081519050919050565b600082825260208201905092915050565b60006132c18261329a565b6132cb81856132a5565b93506132db818560208601612384565b6132e4816123ae565b840191505092915050565b600060808201905061330460008301876124af565b61331160208301866124af565b61331e60408301856125c5565b818103606083015261333081846132b6565b905095945050505050565b60008151905061334a816122d9565b92915050565b600060208284031215613366576133656122a3565b5b60006133748482850161333b565b91505092915050565b600060408201905061339260008301856124af565b61339f60208301846125c5565b9392505050565b7f4e487b7100000000000000000000000000000000000000000000000000000000600052601260045260246000fdfea264697066735822122006f61dd8c0d008f3935e2a4fa17c83f36e909e9747b0bde071ff6c36cb03fdb564736f6c63430008140033",
  "immutableReferences": {},
  "source": "// SPDX-License-Identifier: MIT\r\npragma solidity ^0.8.0;\r\n\r\nimport \"@openzeppelin/contracts/token/ERC721/ERC721.sol\";\r\nimport \"@openzeppelin/contracts/token/ERC721/extensions/ERC721Enumerable.sol\";\r\nimport \"@openzeppelin/contracts/token/ERC721/extensions/ERC721URIStorage.sol\";\r\nimport \"@openzeppelin/contracts/access/Ownable.sol\";\r\n\r\ncontract RealEstateContract is ERC721URIStorage {\r\n    struct PropertyMetadata {\r\n        string name;\r\n        string description;\r\n        uint256 price;\r\n    }\r\n\r\n    mapping(uint256 => PropertyMetadata) public propertyMetadata;\r\n    mapping(uint256 => bool) public propertyListedForSale;\r\n    uint256 public nextTokenId;\r\n\r\n    event PropertyListed(uint256 tokenId, string imageUrl, PropertyMetadata metadata);\r\n    event PropertySold(uint256 tokenId, address newOwner, uint256 price);\r\n\r\n    constructor() ERC721(\"RealEstate\", \"RESTN\") {}\r\n\r\n    function listProperty(\r\n        string memory _name,\r\n        string memory _description,\r\n        uint256 _price,\r\n        string memory _imageUrl\r\n    ) public {\r\n        uint256 tokenId = nextTokenId++;\r\n\r\n        _safeMint(msg.sender, tokenId);\r\n        _setTokenURI(tokenId, _imageUrl);\r\n\r\n        propertyMetadata[tokenId] = PropertyMetadata({\r\n            name: _name,\r\n            description: _description,\r\n            price: _price\r\n        });\r\n\r\n        propertyListedForSale[tokenId] = true;\r\n\r\n        emit PropertyListed(tokenId, _imageUrl, propertyMetadata[tokenId]);\r\n    }\r\n\r\n    function buyProperty(uint256 _tokenId) public payable {\r\n        require(ownerOf(_tokenId) != address(0), \"Property does not exist\");\r\n        require(propertyListedForSale[_tokenId], \"Property is not listed for sale\");\r\n        require(msg.value == propertyMetadata[_tokenId].price, \"Incorrect amount sent\");\r\n\r\n        address previousOwner = ownerOf(_tokenId);\r\n        _transfer(previousOwner, msg.sender, _tokenId);\r\n\r\n        propertyListedForSale[_tokenId] = false;\r\n\r\n        payable(previousOwner).transfer(msg.value);\r\n\r\n        emit PropertySold(_tokenId, msg.sender, msg.value);\r\n    }\r\n\r\n    function editPropertyMetadata(\r\n        uint256 _tokenId,\r\n        string memory _name,\r\n        string memory _description,\r\n        uint256 _price\r\n    ) public {\r\n        require(ownerOf(_tokenId) != address(0), \"Property does not exist\");\r\n        require(ownerOf(_tokenId) == msg.sender, \"Only the owner can edit the property\");\r\n\r\n        propertyMetadata[_tokenId] = PropertyMetadata({\r\n            name: _name,\r\n            description: _description,\r\n            price: _price\r\n        });\r\n    }\r\n\r\n  function deleteProperty(uint256 _tokenId) public {\r\n    require(ownerOf(_tokenId) == msg.sender, \"Only the owner can delete the property\");\r\n\r\n    _burn(_tokenId);\r\n\r\n    delete propertyMetadata[_tokenId];\r\n    propertyListedForSale[_tokenId] = false;\r\n}\r\n\r\n\r\n}",
  "sourcePath": "C:\\Users\\dannd\\Desktop\\Licenta-WORK\\real-estate-licenta\\contracts\\RealEstateContract.sol",
  "compiler": {
    "name": "solc",
    "version": "0.8.20+commit.a1b79de6.Emscripten.clang"
  },
  "schemaVersion": "3.4.16",
  "updatedAt": "2024-03-13T00:39:16.492Z",
  "networkType": "ethereum",
  "devdoc": {
    "errors": {
      "ERC721IncorrectOwner(address,uint256,address)": [
        {
          "details": "Indicates an error related to the ownership over a particular token. Used in transfers.",
          "params": {
            "owner": "Address of the current owner of a token.",
            "sender": "Address whose tokens are being transferred.",
            "tokenId": "Identifier number of a token."
          }
        }
      ],
      "ERC721InsufficientApproval(address,uint256)": [
        {
          "details": "Indicates a failure with the `operator`s approval. Used in transfers.",
          "params": {
            "operator": "Address that may be allowed to operate on tokens without being their owner.",
            "tokenId": "Identifier number of a token."
          }
        }
      ],
      "ERC721InvalidApprover(address)": [
        {
          "details": "Indicates a failure with the `approver` of a token to be approved. Used in approvals.",
          "params": {
            "approver": "Address initiating an approval operation."
          }
        }
      ],
      "ERC721InvalidOperator(address)": [
        {
          "details": "Indicates a failure with the `operator` to be approved. Used in approvals.",
          "params": {
            "operator": "Address that may be allowed to operate on tokens without being their owner."
          }
        }
      ],
      "ERC721InvalidOwner(address)": [
        {
          "details": "Indicates that an address can't be an owner. For example, `address(0)` is a forbidden owner in EIP-20. Used in balance queries.",
          "params": {
            "owner": "Address of the current owner of a token."
          }
        }
      ],
      "ERC721InvalidReceiver(address)": [
        {
          "details": "Indicates a failure with the token `receiver`. Used in transfers.",
          "params": {
            "receiver": "Address to which tokens are being transferred."
          }
        }
      ],
      "ERC721InvalidSender(address)": [
        {
          "details": "Indicates a failure with the token `sender`. Used in transfers.",
          "params": {
            "sender": "Address whose tokens are being transferred."
          }
        }
      ],
      "ERC721NonexistentToken(uint256)": [
        {
          "details": "Indicates a `tokenId` whose `owner` is the zero address.",
          "params": {
            "tokenId": "Identifier number of a token."
          }
        }
      ]
    },
    "events": {
      "Approval(address,address,uint256)": {
        "details": "Emitted when `owner` enables `approved` to manage the `tokenId` token."
      },
      "ApprovalForAll(address,address,bool)": {
        "details": "Emitted when `owner` enables or disables (`approved`) `operator` to manage all of its assets."
      },
      "BatchMetadataUpdate(uint256,uint256)": {
        "details": "This event emits when the metadata of a range of tokens is changed. So that the third-party platforms such as NFT market could timely update the images and related attributes of the NFTs."
      },
      "MetadataUpdate(uint256)": {
        "details": "This event emits when the metadata of a token is changed. So that the third-party platforms such as NFT market could timely update the images and related attributes of the NFT."
      },
      "Transfer(address,address,uint256)": {
        "details": "Emitted when `tokenId` token is transferred from `from` to `to`."
      }
    },
    "kind": "dev",
    "methods": {
      "approve(address,uint256)": {
        "details": "See {IERC721-approve}."
      },
      "balanceOf(address)": {
        "details": "See {IERC721-balanceOf}."
      },
      "getApproved(uint256)": {
        "details": "See {IERC721-getApproved}."
      },
      "isApprovedForAll(address,address)": {
        "details": "See {IERC721-isApprovedForAll}."
      },
      "name()": {
        "details": "See {IERC721Metadata-name}."
      },
      "ownerOf(uint256)": {
        "details": "See {IERC721-ownerOf}."
      },
      "safeTransferFrom(address,address,uint256)": {
        "details": "See {IERC721-safeTransferFrom}."
      },
      "safeTransferFrom(address,address,uint256,bytes)": {
        "details": "See {IERC721-safeTransferFrom}."
      },
      "setApprovalForAll(address,bool)": {
        "details": "See {IERC721-setApprovalForAll}."
      },
      "supportsInterface(bytes4)": {
        "details": "See {IERC165-supportsInterface}"
      },
      "symbol()": {
        "details": "See {IERC721Metadata-symbol}."
      },
      "tokenURI(uint256)": {
        "details": "See {IERC721Metadata-tokenURI}."
      },
      "transferFrom(address,address,uint256)": {
        "details": "See {IERC721-transferFrom}."
      }
    },
    "version": 1
  },
  "userdoc": {
    "kind": "user",
    "methods": {},
    "version": 1
  }
}