{
  "contractName": "RealEstateContract",
  "abi": [
    {
      "inputs": [],
      "stateMutability": "nonpayable",
      "type": "constructor"
    },
    {
      "inputs": [
        {
          "internalType": "address",
          "name": "sender",
          "type": "address"
        },
        {
          "internalType": "uint256",
          "name": "tokenId",
          "type": "uint256"
        },
        {
          "internalType": "address",
          "name": "owner",
          "type": "address"
        }
      ],
      "name": "ERC721IncorrectOwner",
      "type": "error"
    },
    {
      "inputs": [
        {
          "internalType": "address",
          "name": "operator",
          "type": "address"
        },
        {
          "internalType": "uint256",
          "name": "tokenId",
          "type": "uint256"
        }
      ],
      "name": "ERC721InsufficientApproval",
      "type": "error"
    },
    {
      "inputs": [
        {
          "internalType": "address",
          "name": "approver",
          "type": "address"
        }
      ],
      "name": "ERC721InvalidApprover",
      "type": "error"
    },
    {
      "inputs": [
        {
          "internalType": "address",
          "name": "operator",
          "type": "address"
        }
      ],
      "name": "ERC721InvalidOperator",
      "type": "error"
    },
    {
      "inputs": [
        {
          "internalType": "address",
          "name": "owner",
          "type": "address"
        }
      ],
      "name": "ERC721InvalidOwner",
      "type": "error"
    },
    {
      "inputs": [
        {
          "internalType": "address",
          "name": "receiver",
          "type": "address"
        }
      ],
      "name": "ERC721InvalidReceiver",
      "type": "error"
    },
    {
      "inputs": [
        {
          "internalType": "address",
          "name": "sender",
          "type": "address"
        }
      ],
      "name": "ERC721InvalidSender",
      "type": "error"
    },
    {
      "inputs": [
        {
          "internalType": "uint256",
          "name": "tokenId",
          "type": "uint256"
        }
      ],
      "name": "ERC721NonexistentToken",
      "type": "error"
    },
    {
      "anonymous": false,
      "inputs": [
        {
          "indexed": true,
          "internalType": "address",
          "name": "owner",
          "type": "address"
        },
        {
          "indexed": true,
          "internalType": "address",
          "name": "approved",
          "type": "address"
        },
        {
          "indexed": true,
          "internalType": "uint256",
          "name": "tokenId",
          "type": "uint256"
        }
      ],
      "name": "Approval",
      "type": "event"
    },
    {
      "anonymous": false,
      "inputs": [
        {
          "indexed": true,
          "internalType": "address",
          "name": "owner",
          "type": "address"
        },
        {
          "indexed": true,
          "internalType": "address",
          "name": "operator",
          "type": "address"
        },
        {
          "indexed": false,
          "internalType": "bool",
          "name": "approved",
          "type": "bool"
        }
      ],
      "name": "ApprovalForAll",
      "type": "event"
    },
    {
      "anonymous": false,
      "inputs": [
        {
          "indexed": false,
          "internalType": "uint256",
          "name": "_fromTokenId",
          "type": "uint256"
        },
        {
          "indexed": false,
          "internalType": "uint256",
          "name": "_toTokenId",
          "type": "uint256"
        }
      ],
      "name": "BatchMetadataUpdate",
      "type": "event"
    },
    {
      "anonymous": false,
      "inputs": [
        {
          "indexed": false,
          "internalType": "uint256",
          "name": "_tokenId",
          "type": "uint256"
        }
      ],
      "name": "MetadataUpdate",
      "type": "event"
    },
    {
      "anonymous": false,
      "inputs": [
        {
          "indexed": false,
          "internalType": "uint256",
          "name": "tokenId",
          "type": "uint256"
        },
        {
          "indexed": false,
          "internalType": "string",
          "name": "imageUrl",
          "type": "string"
        },
        {
          "components": [
            {
              "internalType": "string",
              "name": "name",
              "type": "string"
            },
            {
              "internalType": "string",
              "name": "description",
              "type": "string"
            },
            {
              "internalType": "uint256",
              "name": "price",
              "type": "uint256"
            }
          ],
          "indexed": false,
          "internalType": "struct RealEstateContract.PropertyMetadata",
          "name": "metadata",
          "type": "tuple"
        }
      ],
      "name": "PropertyListed",
      "type": "event"
    },
    {
      "anonymous": false,
      "inputs": [
        {
          "indexed": false,
          "internalType": "uint256",
          "name": "tokenId",
          "type": "uint256"
        },
        {
          "indexed": false,
          "internalType": "address",
          "name": "newOwner",
          "type": "address"
        },
        {
          "indexed": false,
          "internalType": "uint256",
          "name": "price",
          "type": "uint256"
        }
      ],
      "name": "PropertySold",
      "type": "event"
    },
    {
      "anonymous": false,
      "inputs": [
        {
          "indexed": true,
          "internalType": "address",
          "name": "from",
          "type": "address"
        },
        {
          "indexed": true,
          "internalType": "address",
          "name": "to",
          "type": "address"
        },
        {
          "indexed": true,
          "internalType": "uint256",
          "name": "tokenId",
          "type": "uint256"
        }
      ],
      "name": "Transfer",
      "type": "event"
    },
    {
      "inputs": [
        {
          "internalType": "address",
          "name": "to",
          "type": "address"
        },
        {
          "internalType": "uint256",
          "name": "tokenId",
          "type": "uint256"
        }
      ],
      "name": "approve",
      "outputs": [],
      "stateMutability": "nonpayable",
      "type": "function"
    },
    {
      "inputs": [
        {
          "internalType": "address",
          "name": "owner",
          "type": "address"
        }
      ],
      "name": "balanceOf",
      "outputs": [
        {
          "internalType": "uint256",
          "name": "",
          "type": "uint256"
        }
      ],
      "stateMutability": "view",
      "type": "function",
      "constant": true
    },
    {
      "inputs": [
        {
          "internalType": "uint256",
          "name": "tokenId",
          "type": "uint256"
        }
      ],
      "name": "getApproved",
      "outputs": [
        {
          "internalType": "address",
          "name": "",
          "type": "address"
        }
      ],
      "stateMutability": "view",
      "type": "function",
      "constant": true
    },
    {
      "inputs": [
        {
          "internalType": "address",
          "name": "owner",
          "type": "address"
        },
        {
          "internalType": "address",
          "name": "operator",
          "type": "address"
        }
      ],
      "name": "isApprovedForAll",
      "outputs": [
        {
          "internalType": "bool",
          "name": "",
          "type": "bool"
        }
      ],
      "stateMutability": "view",
      "type": "function",
      "constant": true
    },
    {
      "inputs": [],
      "name": "name",
      "outputs": [
        {
          "internalType": "string",
          "name": "",
          "type": "string"
        }
      ],
      "stateMutability": "view",
      "type": "function",
      "constant": true
    },
    {
      "inputs": [],
      "name": "nextTokenId",
      "outputs": [
        {
          "internalType": "uint256",
          "name": "",
          "type": "uint256"
        }
      ],
      "stateMutability": "view",
      "type": "function",
      "constant": true
    },
    {
      "inputs": [
        {
          "internalType": "uint256",
          "name": "tokenId",
          "type": "uint256"
        }
      ],
      "name": "ownerOf",
      "outputs": [
        {
          "internalType": "address",
          "name": "",
          "type": "address"
        }
      ],
      "stateMutability": "view",
      "type": "function",
      "constant": true
    },
    {
      "inputs": [
        {
          "internalType": "uint256",
          "name": "",
          "type": "uint256"
        }
      ],
      "name": "propertyListedForSale",
      "outputs": [
        {
          "internalType": "bool",
          "name": "",
          "type": "bool"
        }
      ],
      "stateMutability": "view",
      "type": "function",
      "constant": true
    },
    {
      "inputs": [
        {
          "internalType": "uint256",
          "name": "",
          "type": "uint256"
        }
      ],
      "name": "propertyMetadata",
      "outputs": [
        {
          "internalType": "string",
          "name": "name",
          "type": "string"
        },
        {
          "internalType": "string",
          "name": "description",
          "type": "string"
        },
        {
          "internalType": "uint256",
          "name": "price",
          "type": "uint256"
        }
      ],
      "stateMutability": "view",
      "type": "function",
      "constant": true
    },
    {
      "inputs": [
        {
          "internalType": "address",
          "name": "from",
          "type": "address"
        },
        {
          "internalType": "address",
          "name": "to",
          "type": "address"
        },
        {
          "internalType": "uint256",
          "name": "tokenId",
          "type": "uint256"
        }
      ],
      "name": "safeTransferFrom",
      "outputs": [],
      "stateMutability": "nonpayable",
      "type": "function"
    },
    {
      "inputs": [
        {
          "internalType": "address",
          "name": "from",
          "type": "address"
        },
        {
          "internalType": "address",
          "name": "to",
          "type": "address"
        },
        {
          "internalType": "uint256",
          "name": "tokenId",
          "type": "uint256"
        },
        {
          "internalType": "bytes",
          "name": "data",
          "type": "bytes"
        }
      ],
      "name": "safeTransferFrom",
      "outputs": [],
      "stateMutability": "nonpayable",
      "type": "function"
    },
    {
      "inputs": [
        {
          "internalType": "address",
          "name": "operator",
          "type": "address"
        },
        {
          "internalType": "bool",
          "name": "approved",
          "type": "bool"
        }
      ],
      "name": "setApprovalForAll",
      "outputs": [],
      "stateMutability": "nonpayable",
      "type": "function"
    },
    {
      "inputs": [
        {
          "internalType": "bytes4",
          "name": "interfaceId",
          "type": "bytes4"
        }
      ],
      "name": "supportsInterface",
      "outputs": [
        {
          "internalType": "bool",
          "name": "",
          "type": "bool"
        }
      ],
      "stateMutability": "view",
      "type": "function",
      "constant": true
    },
    {
      "inputs": [],
      "name": "symbol",
      "outputs": [
        {
          "internalType": "string",
          "name": "",
          "type": "string"
        }
      ],
      "stateMutability": "view",
      "type": "function",
      "constant": true
    },
    {
      "inputs": [
        {
          "internalType": "uint256",
          "name": "tokenId",
          "type": "uint256"
        }
      ],
      "name": "tokenURI",
      "outputs": [
        {
          "internalType": "string",
          "name": "",
          "type": "string"
        }
      ],
      "stateMutability": "view",
      "type": "function",
      "constant": true
    },
    {
      "inputs": [
        {
          "internalType": "address",
          "name": "from",
          "type": "address"
        },
        {
          "internalType": "address",
          "name": "to",
          "type": "address"
        },
        {
          "internalType": "uint256",
          "name": "tokenId",
          "type": "uint256"
        }
      ],
      "name": "transferFrom",
      "outputs": [],
      "stateMutability": "nonpayable",
      "type": "function"
    },
    {
      "inputs": [
        {
          "internalType": "string",
          "name": "_name",
          "type": "string"
        },
        {
          "internalType": "string",
          "name": "_description",
          "type": "string"
        },
        {
          "internalType": "uint256",
          "name": "_price",
          "type": "uint256"
        },
        {
          "internalType": "string",
          "name": "_imageUrl",
          "type": "string"
        }
      ],
      "name": "listProperty",
      "outputs": [],
      "stateMutability": "nonpayable",
      "type": "function"
    },
    {
      "inputs": [
        {
          "internalType": "uint256",
          "name": "_tokenId",
          "type": "uint256"
        }
      ],
      "name": "buyProperty",
      "outputs": [],
      "stateMutability": "payable",
      "type": "function",
      "payable": true
    },
    {
      "inputs": [
        {
          "internalType": "uint256",
          "name": "_tokenId",
          "type": "uint256"
        },
        {
          "internalType": "string",
          "name": "_name",
          "type": "string"
        },
        {
          "internalType": "string",
          "name": "_description",
          "type": "string"
        },
        {
          "internalType": "uint256",
          "name": "_price",
          "type": "uint256"
        }
      ],
      "name": "editPropertyMetadata",
      "outputs": [],
      "stateMutability": "nonpayable",
      "type": "function"
    },
    {
      "inputs": [
        {
          "internalType": "uint256",
          "name": "_tokenId",
          "type": "uint256"
        }
      ],
      "name": "cancelListing",
      "outputs": [],
      "stateMutability": "nonpayable",
      "type": "function"
    }
  ],
  "bytecode": "0x60806040523480156200001157600080fd5b506040518060400160405280600a81526020017f5265616c457374617465000000000000000000000000000000000000000000008152506040518060400160405280600581526020017f524553544e00000000000000000000000000000000000000000000000000000081525081600090816200008f919062000324565b508060019081620000a1919062000324565b5050506200040b565b600081519050919050565b7f4e487b7100000000000000000000000000000000000000000000000000000000600052604160045260246000fd5b7f4e487b7100000000000000000000000000000000000000000000000000000000600052602260045260246000fd5b600060028204905060018216806200012c57607f821691505b602082108103620001425762000141620000e4565b5b50919050565b60008190508160005260206000209050919050565b60006020601f8301049050919050565b600082821b905092915050565b600060088302620001ac7fffffffffffffffffffffffffffffffffffffffffffffffffffffffffffffffff826200016d565b620001b886836200016d565b95508019841693508086168417925050509392505050565b6000819050919050565b6000819050919050565b600062000205620001ff620001f984620001d0565b620001da565b620001d0565b9050919050565b6000819050919050565b6200022183620001e4565b6200023962000230826200020c565b8484546200017a565b825550505050565b600090565b6200025062000241565b6200025d81848462000216565b505050565b5b8181101562000285576200027960008262000246565b60018101905062000263565b5050565b601f821115620002d4576200029e8162000148565b620002a9846200015d565b81016020851015620002b9578190505b620002d1620002c8856200015d565b83018262000262565b50505b505050565b600082821c905092915050565b6000620002f960001984600802620002d9565b1980831691505092915050565b6000620003148383620002e6565b9150826002028217905092915050565b6200032f82620000aa565b67ffffffffffffffff8111156200034b576200034a620000b5565b5b62000357825462000113565b6200036482828562000289565b600060209050601f8311600181146200039c576000841562000387578287015190505b62000393858262000306565b86555062000403565b601f198416620003ac8662000148565b60005b82811015620003d657848901518255600182019150602085019450602081019050620003af565b86831015620003f65784890151620003f2601f891682620002e6565b8355505b6001600288020188555050505b505050505050565b6133b8806200041b6000396000f3fe60806040526004361061011f5760003560e01c806370a08231116100a0578063b88d4fde11610064578063b88d4fde146103e8578063c87b56dd14610411578063d20275c61461044e578063e905e6431461048d578063e985e9c5146104b65761011f565b806370a082311461030357806375794a3c14610340578063819cefe21461036b57806395d89b4114610394578063a22cb465146103bf5761011f565b8063305a67a8116100e7578063305a67a81461021b57806342842e0e146102445780636352211e1461026d5780636c6b2f22146102aa5780636fa830a6146102e75761011f565b806301ffc9a71461012457806306fdde0314610161578063081812fc1461018c578063095ea7b3146101c957806323b872dd146101f2575b600080fd5b34801561013057600080fd5b5061014b600480360381019061014691906122b2565b6104f3565b60405161015891906122fa565b60405180910390f35b34801561016d57600080fd5b50610176610554565b60405161018391906123a5565b60405180910390f35b34801561019857600080fd5b506101b360048036038101906101ae91906123fd565b6105e6565b6040516101c0919061246b565b60405180910390f35b3480156101d557600080fd5b506101f060048036038101906101eb91906124b2565b610602565b005b3480156101fe57600080fd5b50610219600480360381019061021491906124f2565b610618565b005b34801561022757600080fd5b50610242600480360381019061023d91906123fd565b61071a565b005b34801561025057600080fd5b5061026b600480360381019061026691906124f2565b610896565b005b34801561027957600080fd5b50610294600480360381019061028f91906123fd565b6108b6565b6040516102a1919061246b565b60405180910390f35b3480156102b657600080fd5b506102d160048036038101906102cc91906123fd565b6108c8565b6040516102de91906122fa565b60405180910390f35b61030160048036038101906102fc91906123fd565b6108e8565b005b34801561030f57600080fd5b5061032a60048036038101906103259190612545565b610ae1565b6040516103379190612581565b60405180910390f35b34801561034c57600080fd5b50610355610b9b565b6040516103629190612581565b60405180910390f35b34801561037757600080fd5b50610392600480360381019061038d91906126d1565b610ba1565b005b3480156103a057600080fd5b506103a9610cb7565b6040516103b691906123a5565b60405180910390f35b3480156103cb57600080fd5b506103e660048036038101906103e191906127b8565b610d49565b005b3480156103f457600080fd5b5061040f600480360381019061040a9190612899565b610d5f565b005b34801561041d57600080fd5b50610438600480360381019061043391906123fd565b610d7c565b60405161044591906123a5565b60405180910390f35b34801561045a57600080fd5b50610475600480360381019061047091906123fd565b610e8f565b6040516104849392919061291c565b60405180910390f35b34801561049957600080fd5b506104b460048036038101906104af9190612961565b610fc9565b005b3480156104c257600080fd5b506104dd60048036038101906104d89190612a00565b611123565b6040516104ea91906122fa565b60405180910390f35b6000634906490660e01b7bffffffffffffffffffffffffffffffffffffffffffffffffffffffff1916827bffffffffffffffffffffffffffffffffffffffffffffffffffffffff1916148061054d575061054c826111b7565b5b9050919050565b60606000805461056390612a6f565b80601f016020809104026020016040519081016040528092919081815260200182805461058f90612a6f565b80156105dc5780601f106105b1576101008083540402835291602001916105dc565b820191906000526020600020905b8154815290600101906020018083116105bf57829003601f168201915b5050505050905090565b60006105f182611299565b506105fb82611321565b9050919050565b610614828261060f61135e565b611366565b5050565b600073ffffffffffffffffffffffffffffffffffffffff168273ffffffffffffffffffffffffffffffffffffffff160361068a5760006040517f64a0ae92000000000000000000000000000000000000000000000000000000008152600401610681919061246b565b60405180910390fd5b600061069e838361069961135e565b611378565b90508373ffffffffffffffffffffffffffffffffffffffff168173ffffffffffffffffffffffffffffffffffffffff1614610714578382826040517f64283d7b00000000000000000000000000000000000000000000000000000000815260040161070b93929190612aa0565b60405180910390fd5b50505050565b600073ffffffffffffffffffffffffffffffffffffffff1661073b826108b6565b73ffffffffffffffffffffffffffffffffffffffff1603610791576040517f08c379a000000000000000000000000000000000000000000000000000000000815260040161078890612b23565b60405180910390fd5b3373ffffffffffffffffffffffffffffffffffffffff166107b1826108b6565b73ffffffffffffffffffffffffffffffffffffffff1614610807576040517f08c379a00000000000000000000000000000000000000000000000000000000081526004016107fe90612bb5565b60405180910390fd5b6008600082815260200190815260200160002060009054906101000a900460ff16610867576040517f08c379a000000000000000000000000000000000000000000000000000000000815260040161085e90612c21565b60405180910390fd5b60006008600083815260200190815260200160002060006101000a81548160ff02191690831515021790555050565b6108b183838360405180602001604052806000815250610d5f565b505050565b60006108c182611299565b9050919050565b60086020528060005260406000206000915054906101000a900460ff1681565b600073ffffffffffffffffffffffffffffffffffffffff16610909826108b6565b73ffffffffffffffffffffffffffffffffffffffff160361095f576040517f08c379a000000000000000000000000000000000000000000000000000000000815260040161095690612b23565b60405180910390fd5b6008600082815260200190815260200160002060009054906101000a900460ff166109bf576040517f08c379a00000000000000000000000000000000000000000000000000000000081526004016109b690612c21565b60405180910390fd5b60076000828152602001908152602001600020600201543414610a17576040517f08c379a0000000000000000000000000000000000000000000000000000000008152600401610a0e90612c8d565b60405180910390fd5b6000610a22826108b6565b9050610a2f813384611592565b60006008600084815260200190815260200160002060006101000a81548160ff0219169083151502179055508073ffffffffffffffffffffffffffffffffffffffff166108fc349081150290604051600060405180830381858888f19350505050158015610aa1573d6000803e3d6000fd5b507ff17a6666765db393a6218bb324c4de5cc60c9ee3b981bd102ba416effc13b895823334604051610ad593929190612cad565b60405180910390a15050565b60008073ffffffffffffffffffffffffffffffffffffffff168273ffffffffffffffffffffffffffffffffffffffff1603610b545760006040517f89c62b64000000000000000000000000000000000000000000000000000000008152600401610b4b919061246b565b60405180910390fd5b600360008373ffffffffffffffffffffffffffffffffffffffff1673ffffffffffffffffffffffffffffffffffffffff168152602001908152602001600020549050919050565b60095481565b600060096000815480929190610bb690612d13565b919050559050610bc633826116ff565b610bd0818361171d565b604051806060016040528086815260200185815260200184815250600760008381526020019081526020016000206000820151816000019081610c139190612f07565b506020820151816001019081610c299190612f07565b506040820151816002015590505060016008600083815260200190815260200160002060006101000a81548160ff0219169083151502179055507fe55b64cc0c680f630a010980a16e1f97b1081ac27257278b89e9c7db128fe210818360076000858152602001908152602001600020604051610ca893929190613110565b60405180910390a15050505050565b606060018054610cc690612a6f565b80601f0160208091040260200160405190810160405280929190818152602001828054610cf290612a6f565b8015610d3f5780601f10610d1457610100808354040283529160200191610d3f565b820191906000526020600020905b815481529060010190602001808311610d2257829003601f168201915b5050505050905090565b610d5b610d5461135e565b8383611779565b5050565b610d6a848484610618565b610d76848484846118e8565b50505050565b6060610d8782611299565b506000600660008481526020019081526020016000208054610da890612a6f565b80601f0160208091040260200160405190810160405280929190818152602001828054610dd490612a6f565b8015610e215780601f10610df657610100808354040283529160200191610e21565b820191906000526020600020905b815481529060010190602001808311610e0457829003601f168201915b505050505090506000610e32611a9f565b90506000815103610e47578192505050610e8a565b600082511115610e7c578082604051602001610e64929190613191565b60405160208183030381529060405292505050610e8a565b610e8584611ab6565b925050505b919050565b6007602052806000526040600020600091509050806000018054610eb290612a6f565b80601f0160208091040260200160405190810160405280929190818152602001828054610ede90612a6f565b8015610f2b5780601f10610f0057610100808354040283529160200191610f2b565b820191906000526020600020905b815481529060010190602001808311610f0e57829003601f168201915b505050505090806001018054610f4090612a6f565b80601f0160208091040260200160405190810160405280929190818152602001828054610f6c90612a6f565b8015610fb95780601f10610f8e57610100808354040283529160200191610fb9565b820191906000526020600020905b815481529060010190602001808311610f9c57829003601f168201915b5050505050908060020154905083565b600073ffffffffffffffffffffffffffffffffffffffff16610fea856108b6565b73ffffffffffffffffffffffffffffffffffffffff1603611040576040517f08c379a000000000000000000000000000000000000000000000000000000000815260040161103790612b23565b60405180910390fd5b3373ffffffffffffffffffffffffffffffffffffffff16611060856108b6565b73ffffffffffffffffffffffffffffffffffffffff16146110b6576040517f08c379a00000000000000000000000000000000000000000000000000000000081526004016110ad90613227565b60405180910390fd5b6040518060600160405280848152602001838152602001828152506007600086815260200190815260200160002060008201518160000190816110f99190612f07565b50602082015181600101908161110f9190612f07565b506040820151816002015590505050505050565b6000600560008473ffffffffffffffffffffffffffffffffffffffff1673ffffffffffffffffffffffffffffffffffffffff16815260200190815260200160002060008373ffffffffffffffffffffffffffffffffffffffff1673ffffffffffffffffffffffffffffffffffffffff16815260200190815260200160002060009054906101000a900460ff16905092915050565b60007f80ac58cd000000000000000000000000000000000000000000000000000000007bffffffffffffffffffffffffffffffffffffffffffffffffffffffff1916827bffffffffffffffffffffffffffffffffffffffffffffffffffffffff1916148061128257507f5b5e139f000000000000000000000000000000000000000000000000000000007bffffffffffffffffffffffffffffffffffffffffffffffffffffffff1916827bffffffffffffffffffffffffffffffffffffffffffffffffffffffff1916145b80611292575061129182611b1f565b5b9050919050565b6000806112a583611b89565b9050600073ffffffffffffffffffffffffffffffffffffffff168173ffffffffffffffffffffffffffffffffffffffff160361131857826040517f7e27328900000000000000000000000000000000000000000000000000000000815260040161130f9190612581565b60405180910390fd5b80915050919050565b60006004600083815260200190815260200160002060009054906101000a900473ffffffffffffffffffffffffffffffffffffffff169050919050565b600033905090565b6113738383836001611bc6565b505050565b60008061138484611b89565b9050600073ffffffffffffffffffffffffffffffffffffffff168373ffffffffffffffffffffffffffffffffffffffff16146113c6576113c5818486611d8b565b5b600073ffffffffffffffffffffffffffffffffffffffff168173ffffffffffffffffffffffffffffffffffffffff161461145757611408600085600080611bc6565b6001600360008373ffffffffffffffffffffffffffffffffffffffff1673ffffffffffffffffffffffffffffffffffffffff168152602001908152602001600020600082825403925050819055505b600073ffffffffffffffffffffffffffffffffffffffff168573ffffffffffffffffffffffffffffffffffffffff16146114da576001600360008773ffffffffffffffffffffffffffffffffffffffff1673ffffffffffffffffffffffffffffffffffffffff168152602001908152602001600020600082825401925050819055505b846002600086815260200190815260200160002060006101000a81548173ffffffffffffffffffffffffffffffffffffffff021916908373ffffffffffffffffffffffffffffffffffffffff160217905550838573ffffffffffffffffffffffffffffffffffffffff168273ffffffffffffffffffffffffffffffffffffffff167fddf252ad1be2c89b69c2b068fc378daa952ba7f163c4a11628f55a4df523b3ef60405160405180910390a4809150509392505050565b600073ffffffffffffffffffffffffffffffffffffffff168273ffffffffffffffffffffffffffffffffffffffff16036116045760006040517f64a0ae920000000000000000000000000000000000000000000000000000000081526004016115fb919061246b565b60405180910390fd5b600061161283836000611378565b9050600073ffffffffffffffffffffffffffffffffffffffff168173ffffffffffffffffffffffffffffffffffffffff160361168557816040517f7e27328900000000000000000000000000000000000000000000000000000000815260040161167c9190612581565b60405180910390fd5b8373ffffffffffffffffffffffffffffffffffffffff168173ffffffffffffffffffffffffffffffffffffffff16146116f9578382826040517f64283d7b0000000000000000000000000000000000000000000000000000000081526004016116f093929190612aa0565b60405180910390fd5b50505050565b611719828260405180602001604052806000815250611e4f565b5050565b8060066000848152602001908152602001600020908161173d9190612f07565b507ff8e1a15aba9398e019f0b49df1a4fde98ee17ae345cb5f6b5e2c27f5033e8ce78260405161176d9190612581565b60405180910390a15050565b600073ffffffffffffffffffffffffffffffffffffffff168273ffffffffffffffffffffffffffffffffffffffff16036117ea57816040517f5b08ba180000000000000000000000000000000000000000000000000000000081526004016117e1919061246b565b60405180910390fd5b80600560008573ffffffffffffffffffffffffffffffffffffffff1673ffffffffffffffffffffffffffffffffffffffff16815260200190815260200160002060008473ffffffffffffffffffffffffffffffffffffffff1673ffffffffffffffffffffffffffffffffffffffff16815260200190815260200160002060006101000a81548160ff0219169083151502179055508173ffffffffffffffffffffffffffffffffffffffff168373ffffffffffffffffffffffffffffffffffffffff167f17307eab39ab6107e8899845ad3d59bd9653f200f220920489ca2b5937696c31836040516118db91906122fa565b60405180910390a3505050565b60008373ffffffffffffffffffffffffffffffffffffffff163b1115611a99578273ffffffffffffffffffffffffffffffffffffffff1663150b7a0261192c61135e565b8685856040518563ffffffff1660e01b815260040161194e949392919061329c565b6020604051808303816000875af192505050801561198a57506040513d601f19601f8201168201806040525081019061198791906132fd565b60015b611a0e573d80600081146119ba576040519150601f19603f3d011682016040523d82523d6000602084013e6119bf565b606091505b506000815103611a0657836040517f64a0ae920000000000000000000000000000000000000000000000000000000081526004016119fd919061246b565b60405180910390fd5b805181602001fd5b63150b7a0260e01b7bffffffffffffffffffffffffffffffffffffffffffffffffffffffff1916817bffffffffffffffffffffffffffffffffffffffffffffffffffffffff191614611a9757836040517f64a0ae92000000000000000000000000000000000000000000000000000000008152600401611a8e919061246b565b60405180910390fd5b505b50505050565b606060405180602001604052806000815250905090565b6060611ac182611299565b506000611acc611a9f565b90506000815111611aec5760405180602001604052806000815250611b17565b80611af684611e6b565b604051602001611b07929190613191565b6040516020818303038152906040525b915050919050565b60007f01ffc9a7000000000000000000000000000000000000000000000000000000007bffffffffffffffffffffffffffffffffffffffffffffffffffffffff1916827bffffffffffffffffffffffffffffffffffffffffffffffffffffffff1916149050919050565b60006002600083815260200190815260200160002060009054906101000a900473ffffffffffffffffffffffffffffffffffffffff169050919050565b8080611bff5750600073ffffffffffffffffffffffffffffffffffffffff168273ffffffffffffffffffffffffffffffffffffffff1614155b15611d33576000611c0f84611299565b9050600073ffffffffffffffffffffffffffffffffffffffff168373ffffffffffffffffffffffffffffffffffffffff1614158015611c7a57508273ffffffffffffffffffffffffffffffffffffffff168173ffffffffffffffffffffffffffffffffffffffff1614155b8015611c8d5750611c8b8184611123565b155b15611ccf57826040517fa9fbf51f000000000000000000000000000000000000000000000000000000008152600401611cc6919061246b565b60405180910390fd5b8115611d3157838573ffffffffffffffffffffffffffffffffffffffff168273ffffffffffffffffffffffffffffffffffffffff167f8c5be1e5ebec7d5bd14f71427d1e84f3dd0314c0f7b2291e5b200ac8c7c3b92560405160405180910390a45b505b836004600085815260200190815260200160002060006101000a81548173ffffffffffffffffffffffffffffffffffffffff021916908373ffffffffffffffffffffffffffffffffffffffff16021790555050505050565b611d96838383611f39565b611e4a57600073ffffffffffffffffffffffffffffffffffffffff168373ffffffffffffffffffffffffffffffffffffffff1603611e0b57806040517f7e273289000000000000000000000000000000000000000000000000000000008152600401611e029190612581565b60405180910390fd5b81816040517f177e802f000000000000000000000000000000000000000000000000000000008152600401611e4192919061332a565b60405180910390fd5b505050565b611e598383611ffa565b611e6660008484846118e8565b505050565b606060006001611e7a846120f3565b01905060008167ffffffffffffffff811115611e9957611e986125a6565b5b6040519080825280601f01601f191660200182016040528015611ecb5781602001600182028036833780820191505090505b509050600082602001820190505b600115611f2e578080600190039150507f3031323334353637383961626364656600000000000000000000000000000000600a86061a8153600a8581611f2257611f21613353565b5b04945060008503611ed9575b819350505050919050565b60008073ffffffffffffffffffffffffffffffffffffffff168373ffffffffffffffffffffffffffffffffffffffff1614158015611ff157508273ffffffffffffffffffffffffffffffffffffffff168473ffffffffffffffffffffffffffffffffffffffff161480611fb25750611fb18484611123565b5b80611ff057508273ffffffffffffffffffffffffffffffffffffffff16611fd883611321565b73ffffffffffffffffffffffffffffffffffffffff16145b5b90509392505050565b600073ffffffffffffffffffffffffffffffffffffffff168273ffffffffffffffffffffffffffffffffffffffff160361206c5760006040517f64a0ae92000000000000000000000000000000000000000000000000000000008152600401612063919061246b565b60405180910390fd5b600061207a83836000611378565b9050600073ffffffffffffffffffffffffffffffffffffffff168173ffffffffffffffffffffffffffffffffffffffff16146120ee5760006040517f73c6ac6e0000000000000000000000000000000000000000000000000000000081526004016120e5919061246b565b60405180910390fd5b505050565b600080600090507a184f03e93ff9f4daa797ed6e38ed64bf6a1f0100000000000000008310612151577a184f03e93ff9f4daa797ed6e38ed64bf6a1f010000000000000000838161214757612146613353565b5b0492506040810190505b6d04ee2d6d415b85acef8100000000831061218e576d04ee2d6d415b85acef8100000000838161218457612183613353565b5b0492506020810190505b662386f26fc1000083106121bd57662386f26fc1000083816121b3576121b2613353565b5b0492506010810190505b6305f5e10083106121e6576305f5e10083816121dc576121db613353565b5b0492506008810190505b612710831061220b57612710838161220157612200613353565b5b0492506004810190505b6064831061222e576064838161222457612223613353565b5b0492506002810190505b600a831061223d576001810190505b80915050919050565b6000604051905090565b600080fd5b600080fd5b60007fffffffff0000000000000000000000000000000000000000000000000000000082169050919050565b61228f8161225a565b811461229a57600080fd5b50565b6000813590506122ac81612286565b92915050565b6000602082840312156122c8576122c7612250565b5b60006122d68482850161229d565b91505092915050565b60008115159050919050565b6122f4816122df565b82525050565b600060208201905061230f60008301846122eb565b92915050565b600081519050919050565b600082825260208201905092915050565b60005b8381101561234f578082015181840152602081019050612334565b60008484015250505050565b6000601f19601f8301169050919050565b600061237782612315565b6123818185612320565b9350612391818560208601612331565b61239a8161235b565b840191505092915050565b600060208201905081810360008301526123bf818461236c565b905092915050565b6000819050919050565b6123da816123c7565b81146123e557600080fd5b50565b6000813590506123f7816123d1565b92915050565b60006020828403121561241357612412612250565b5b6000612421848285016123e8565b91505092915050565b600073ffffffffffffffffffffffffffffffffffffffff82169050919050565b60006124558261242a565b9050919050565b6124658161244a565b82525050565b6000602082019050612480600083018461245c565b92915050565b61248f8161244a565b811461249a57600080fd5b50565b6000813590506124ac81612486565b92915050565b600080604083850312156124c9576124c8612250565b5b60006124d78582860161249d565b92505060206124e8858286016123e8565b9150509250929050565b60008060006060848603121561250b5761250a612250565b5b60006125198682870161249d565b935050602061252a8682870161249d565b925050604061253b868287016123e8565b9150509250925092565b60006020828403121561255b5761255a612250565b5b60006125698482850161249d565b91505092915050565b61257b816123c7565b82525050565b60006020820190506125966000830184612572565b92915050565b600080fd5b600080fd5b7f4e487b7100000000000000000000000000000000000000000000000000000000600052604160045260246000fd5b6125de8261235b565b810181811067ffffffffffffffff821117156125fd576125fc6125a6565b5b80604052505050565b6000612610612246565b905061261c82826125d5565b919050565b600067ffffffffffffffff82111561263c5761263b6125a6565b5b6126458261235b565b9050602081019050919050565b82818337600083830152505050565b600061267461266f84612621565b612606565b9050828152602081018484840111156126905761268f6125a1565b5b61269b848285612652565b509392505050565b600082601f8301126126b8576126b761259c565b5b81356126c8848260208601612661565b91505092915050565b600080600080608085870312156126eb576126ea612250565b5b600085013567ffffffffffffffff81111561270957612708612255565b5b612715878288016126a3565b945050602085013567ffffffffffffffff81111561273657612735612255565b5b612742878288016126a3565b9350506040612753878288016123e8565b925050606085013567ffffffffffffffff81111561277457612773612255565b5b612780878288016126a3565b91505092959194509250565b612795816122df565b81146127a057600080fd5b50565b6000813590506127b28161278c565b92915050565b600080604083850312156127cf576127ce612250565b5b60006127dd8582860161249d565b92505060206127ee858286016127a3565b9150509250929050565b600067ffffffffffffffff821115612813576128126125a6565b5b61281c8261235b565b9050602081019050919050565b600061283c612837846127f8565b612606565b905082815260208101848484011115612858576128576125a1565b5b612863848285612652565b509392505050565b600082601f8301126128805761287f61259c565b5b8135612890848260208601612829565b91505092915050565b600080600080608085870312156128b3576128b2612250565b5b60006128c18782880161249d565b94505060206128d28782880161249d565b93505060406128e3878288016123e8565b925050606085013567ffffffffffffffff81111561290457612903612255565b5b6129108782880161286b565b91505092959194509250565b60006060820190508181036000830152612936818661236c565b9050818103602083015261294a818561236c565b90506129596040830184612572565b949350505050565b6000806000806080858703121561297b5761297a612250565b5b6000612989878288016123e8565b945050602085013567ffffffffffffffff8111156129aa576129a9612255565b5b6129b6878288016126a3565b935050604085013567ffffffffffffffff8111156129d7576129d6612255565b5b6129e3878288016126a3565b92505060606129f4878288016123e8565b91505092959194509250565b60008060408385031215612a1757612a16612250565b5b6000612a258582860161249d565b9250506020612a368582860161249d565b9150509250929050565b7f4e487b7100000000000000000000000000000000000000000000000000000000600052602260045260246000fd5b60006002820490506001821680612a8757607f821691505b602082108103612a9a57612a99612a40565b5b50919050565b6000606082019050612ab5600083018661245c565b612ac26020830185612572565b612acf604083018461245c565b949350505050565b7f50726f706572747920646f6573206e6f74206578697374000000000000000000600082015250565b6000612b0d601783612320565b9150612b1882612ad7565b602082019050919050565b60006020820190508181036000830152612b3c81612b00565b9050919050565b7f4f6e6c7920746865206f776e65722063616e2063616e63656c20746865206c6960008201527f7374696e67000000000000000000000000000000000000000000000000000000602082015250565b6000612b9f602583612320565b9150612baa82612b43565b604082019050919050565b60006020820190508181036000830152612bce81612b92565b9050919050565b7f50726f7065727479206973206e6f74206c697374656420666f722073616c6500600082015250565b6000612c0b601f83612320565b9150612c1682612bd5565b602082019050919050565b60006020820190508181036000830152612c3a81612bfe565b9050919050565b7f496e636f727265637420616d6f756e742073656e740000000000000000000000600082015250565b6000612c77601583612320565b9150612c8282612c41565b602082019050919050565b60006020820190508181036000830152612ca681612c6a565b9050919050565b6000606082019050612cc26000830186612572565b612ccf602083018561245c565b612cdc6040830184612572565b949350505050565b7f4e487b7100000000000000000000000000000000000000000000000000000000600052601160045260246000fd5b6000612d1e826123c7565b91507fffffffffffffffffffffffffffffffffffffffffffffffffffffffffffffffff8203612d5057612d4f612ce4565b5b600182019050919050565b60008190508160005260206000209050919050565b60006020601f8301049050919050565b600082821b905092915050565b600060088302612dbd7fffffffffffffffffffffffffffffffffffffffffffffffffffffffffffffffff82612d80565b612dc78683612d80565b95508019841693508086168417925050509392505050565b6000819050919050565b6000612e04612dff612dfa846123c7565b612ddf565b6123c7565b9050919050565b6000819050919050565b612e1e83612de9565b612e32612e2a82612e0b565b848454612d8d565b825550505050565b600090565b612e47612e3a565b612e52818484612e15565b505050565b5b81811015612e7657612e6b600082612e3f565b600181019050612e58565b5050565b601f821115612ebb57612e8c81612d5b565b612e9584612d70565b81016020851015612ea4578190505b612eb8612eb085612d70565b830182612e57565b50505b505050565b600082821c905092915050565b6000612ede60001984600802612ec0565b1980831691505092915050565b6000612ef78383612ecd565b9150826002028217905092915050565b612f1082612315565b67ffffffffffffffff811115612f2957612f286125a6565b5b612f338254612a6f565b612f3e828285612e7a565b600060209050601f831160018114612f715760008415612f5f578287015190505b612f698582612eeb565b865550612fd1565b601f198416612f7f86612d5b565b60005b82811015612fa757848901518255600182019150602085019450602081019050612f82565b86831015612fc45784890151612fc0601f891682612ecd565b8355505b6001600288020188555050505b505050505050565b600082825260208201905092915050565b60008154612ff781612a6f565b6130018186612fd9565b9450600182166000811461301c576001811461303257613065565b60ff198316865281151560200286019350613065565b61303b85612d5b565b60005b8381101561305d5781548189015260018201915060208101905061303e565b808801955050505b50505092915050565b60008160001c9050919050565b6000819050919050565b60006130986130938361306e565b61307b565b9050919050565b6130a8816123c7565b82525050565b600060608301600080840185830360008701526130cb8382612fea565b9250506001840185830360208701526130e48382612fea565b925050600284015490506130f781613085565b613104604087018261309f565b50819250505092915050565b60006060820190506131256000830186612572565b8181036020830152613137818561236c565b9050818103604083015261314b81846130ae565b9050949350505050565b600081905092915050565b600061316b82612315565b6131758185613155565b9350613185818560208601612331565b80840191505092915050565b600061319d8285613160565b91506131a98284613160565b91508190509392505050565b7f4f6e6c7920746865206f776e65722063616e2065646974207468652070726f7060008201527f6572747900000000000000000000000000000000000000000000000000000000602082015250565b6000613211602483612320565b915061321c826131b5565b604082019050919050565b6000602082019050818103600083015261324081613204565b9050919050565b600081519050919050565b600082825260208201905092915050565b600061326e82613247565b6132788185613252565b9350613288818560208601612331565b6132918161235b565b840191505092915050565b60006080820190506132b1600083018761245c565b6132be602083018661245c565b6132cb6040830185612572565b81810360608301526132dd8184613263565b905095945050505050565b6000815190506132f781612286565b92915050565b60006020828403121561331357613312612250565b5b6000613321848285016132e8565b91505092915050565b600060408201905061333f600083018561245c565b61334c6020830184612572565b9392505050565b7f4e487b7100000000000000000000000000000000000000000000000000000000600052601260045260246000fdfea264697066735822122026538a79530d9c4dd28794522e09e074c429132c7b42b2c31ba7eae66282b46664736f6c63430008140033",
  "immutableReferences": {},
  "source": "// SPDX-License-Identifier: MIT\r\npragma solidity ^0.8.0;\r\n\r\nimport \"@openzeppelin/contracts/token/ERC721/ERC721.sol\";\r\nimport \"@openzeppelin/contracts/token/ERC721/extensions/ERC721Enumerable.sol\";\r\nimport \"@openzeppelin/contracts/token/ERC721/extensions/ERC721URIStorage.sol\";\r\nimport \"@openzeppelin/contracts/access/Ownable.sol\";\r\n\r\ncontract RealEstateContract is ERC721URIStorage {\r\n    struct PropertyMetadata {\r\n        string name;\r\n        string description;\r\n        uint256 price;\r\n    }\r\n\r\n    mapping(uint256 => PropertyMetadata) public propertyMetadata;\r\n    mapping(uint256 => bool) public propertyListedForSale;\r\n    uint256 public nextTokenId;\r\n\r\n    event PropertyListed(uint256 tokenId, string imageUrl, PropertyMetadata metadata);\r\n    event PropertySold(uint256 tokenId, address newOwner, uint256 price);\r\n\r\n    constructor() ERC721(\"RealEstate\", \"RESTN\") {}\r\n\r\n    function listProperty(\r\n        string memory _name,\r\n        string memory _description,\r\n        uint256 _price,\r\n        string memory _imageUrl\r\n    ) public {\r\n        uint256 tokenId = nextTokenId++;\r\n\r\n        _safeMint(msg.sender, tokenId);\r\n        _setTokenURI(tokenId, _imageUrl);\r\n\r\n        propertyMetadata[tokenId] = PropertyMetadata({\r\n            name: _name,\r\n            description: _description,\r\n            price: _price\r\n        });\r\n\r\n        propertyListedForSale[tokenId] = true;\r\n\r\n        emit PropertyListed(tokenId, _imageUrl, propertyMetadata[tokenId]);\r\n    }\r\n\r\n    function buyProperty(uint256 _tokenId) public payable {\r\n        require(ownerOf(_tokenId) != address(0), \"Property does not exist\");\r\n        require(propertyListedForSale[_tokenId], \"Property is not listed for sale\");\r\n        require(msg.value == propertyMetadata[_tokenId].price, \"Incorrect amount sent\");\r\n\r\n        address previousOwner = ownerOf(_tokenId);\r\n        _transfer(previousOwner, msg.sender, _tokenId);\r\n\r\n        propertyListedForSale[_tokenId] = false;\r\n\r\n        payable(previousOwner).transfer(msg.value);\r\n\r\n        emit PropertySold(_tokenId, msg.sender, msg.value);\r\n    }\r\n\r\n    function editPropertyMetadata(\r\n        uint256 _tokenId,\r\n        string memory _name,\r\n        string memory _description,\r\n        uint256 _price\r\n    ) public {\r\n        require(ownerOf(_tokenId) != address(0), \"Property does not exist\");\r\n        require(ownerOf(_tokenId) == msg.sender, \"Only the owner can edit the property\");\r\n\r\n        propertyMetadata[_tokenId] = PropertyMetadata({\r\n            name: _name,\r\n            description: _description,\r\n            price: _price\r\n        });\r\n    }\r\n\r\n    function cancelListing(uint256 _tokenId) public {\r\n        require(ownerOf(_tokenId) != address(0), \"Property does not exist\");\r\n        require(ownerOf(_tokenId) == msg.sender, \"Only the owner can cancel the listing\");\r\n        require(propertyListedForSale[_tokenId], \"Property is not listed for sale\");\r\n\r\n        propertyListedForSale[_tokenId] = false;\r\n    }\r\n}",
  "sourcePath": "D:\\LICENTA\\TheRealOne\\contracts\\RealEstateContract.sol",
  "compiler": {
    "name": "solc",
    "version": "0.8.20+commit.a1b79de6.Emscripten.clang"
  },
  "schemaVersion": "3.4.16",
  "updatedAt": "2024-03-10T03:15:56.901Z",
  "networkType": "ethereum",
  "devdoc": {
    "errors": {
      "ERC721IncorrectOwner(address,uint256,address)": [
        {
          "details": "Indicates an error related to the ownership over a particular token. Used in transfers.",
          "params": {
            "owner": "Address of the current owner of a token.",
            "sender": "Address whose tokens are being transferred.",
            "tokenId": "Identifier number of a token."
          }
        }
      ],
      "ERC721InsufficientApproval(address,uint256)": [
        {
          "details": "Indicates a failure with the `operator`s approval. Used in transfers.",
          "params": {
            "operator": "Address that may be allowed to operate on tokens without being their owner.",
            "tokenId": "Identifier number of a token."
          }
        }
      ],
      "ERC721InvalidApprover(address)": [
        {
          "details": "Indicates a failure with the `approver` of a token to be approved. Used in approvals.",
          "params": {
            "approver": "Address initiating an approval operation."
          }
        }
      ],
      "ERC721InvalidOperator(address)": [
        {
          "details": "Indicates a failure with the `operator` to be approved. Used in approvals.",
          "params": {
            "operator": "Address that may be allowed to operate on tokens without being their owner."
          }
        }
      ],
      "ERC721InvalidOwner(address)": [
        {
          "details": "Indicates that an address can't be an owner. For example, `address(0)` is a forbidden owner in EIP-20. Used in balance queries.",
          "params": {
            "owner": "Address of the current owner of a token."
          }
        }
      ],
      "ERC721InvalidReceiver(address)": [
        {
          "details": "Indicates a failure with the token `receiver`. Used in transfers.",
          "params": {
            "receiver": "Address to which tokens are being transferred."
          }
        }
      ],
      "ERC721InvalidSender(address)": [
        {
          "details": "Indicates a failure with the token `sender`. Used in transfers.",
          "params": {
            "sender": "Address whose tokens are being transferred."
          }
        }
      ],
      "ERC721NonexistentToken(uint256)": [
        {
          "details": "Indicates a `tokenId` whose `owner` is the zero address.",
          "params": {
            "tokenId": "Identifier number of a token."
          }
        }
      ]
    },
    "events": {
      "Approval(address,address,uint256)": {
        "details": "Emitted when `owner` enables `approved` to manage the `tokenId` token."
      },
      "ApprovalForAll(address,address,bool)": {
        "details": "Emitted when `owner` enables or disables (`approved`) `operator` to manage all of its assets."
      },
      "BatchMetadataUpdate(uint256,uint256)": {
        "details": "This event emits when the metadata of a range of tokens is changed. So that the third-party platforms such as NFT market could timely update the images and related attributes of the NFTs."
      },
      "MetadataUpdate(uint256)": {
        "details": "This event emits when the metadata of a token is changed. So that the third-party platforms such as NFT market could timely update the images and related attributes of the NFT."
      },
      "Transfer(address,address,uint256)": {
        "details": "Emitted when `tokenId` token is transferred from `from` to `to`."
      }
    },
    "kind": "dev",
    "methods": {
      "approve(address,uint256)": {
        "details": "See {IERC721-approve}."
      },
      "balanceOf(address)": {
        "details": "See {IERC721-balanceOf}."
      },
      "getApproved(uint256)": {
        "details": "See {IERC721-getApproved}."
      },
      "isApprovedForAll(address,address)": {
        "details": "See {IERC721-isApprovedForAll}."
      },
      "name()": {
        "details": "See {IERC721Metadata-name}."
      },
      "ownerOf(uint256)": {
        "details": "See {IERC721-ownerOf}."
      },
      "safeTransferFrom(address,address,uint256)": {
        "details": "See {IERC721-safeTransferFrom}."
      },
      "safeTransferFrom(address,address,uint256,bytes)": {
        "details": "See {IERC721-safeTransferFrom}."
      },
      "setApprovalForAll(address,bool)": {
        "details": "See {IERC721-setApprovalForAll}."
      },
      "supportsInterface(bytes4)": {
        "details": "See {IERC165-supportsInterface}"
      },
      "symbol()": {
        "details": "See {IERC721Metadata-symbol}."
      },
      "tokenURI(uint256)": {
        "details": "See {IERC721Metadata-tokenURI}."
      },
      "transferFrom(address,address,uint256)": {
        "details": "See {IERC721-transferFrom}."
      }
    },
    "version": 1
  },
  "userdoc": {
    "kind": "user",
    "methods": {},
    "version": 1
  }
}